:100000000A128A11ED2F00308A000408840A820740
:100010000034003402340434003403340034013436
:100020001034033402340034003403340234013415
:10003000003406340034043400340634053400340B
:10004000203406340534043400341F341D341F3486
:100050001E341F341E341F341F341E341F341E340C
:100060001F3453346534743420345334653463346A
:100070006F346E3464347334003453346534743400
:1000800020344D3469346E347534743465347334CB
:100090000034533465347434203444346134793456
:1000A00020342034003453346534743420344434E0
:1000B000613474346534203400345334653474341A
:1000C00020344D346F346E34743468340034533417
:1000D00065347434203448346F3475347234733476
:1000E0000034533465347434203459346534613405
:1000F0007234003457346534643400345434753405
:100100006534003446347234693400344D346F340D
:100110006E340034533475346E34003453346134E7
:0C012000743400345434683475340034F6
:10013200F601F31FA328F209F309F20A0319F30ADD
:10014200F601F60AF11FAA28F009F109F00A0319CB
:10015200F10A700871040319D728F501F50AF11B99
:10016200BE2801300310F00DF10DFF3E031DB32830
:100172000130F4007408F507B02871087302031DFA
:10018200C42870087202031CCC287008F20271089D
:10019200031CF303F30201300310F10CF00CFF3ED9
:1001A200031DCD280130F502031DBE287608031970
:1001B200DF28F209F309F20A0319F30A7308F100BE
:1001C2007208F0000800F9000A128A1509240A12BE
:1001D2008A11D0300A128A15DF230A128A110330DB
:1001E2000A128A15DF230A128A110A128A15F923C2
:1001F2000A128A110A128A1509240A128A11D130A6
:100202000A128A15DF230A128A110A128A15B923E1
:100212000A128A11F8007908840078088313800092
:100222000A128A15D5230A128A110A128A15B923CB
:100232000A128A11F8007508840078088313800076
:100242000A128A15D5230A128A110A128A15B923AB
:100252000A128A11F8007608840078088313800055
:100262000A128A15D5230A128A110A128A15B9238B
:100272000A128A11F8007708840078088313800034
:100282000A128A15CB230A128A110A128A15F92335
:10029200080083120313A7000A30F0000030F100B7
:1002A2002708A000A1012008F2002108F3000A1289
:1002B2008A1199200A128A117008303E83120313A0
:1002C200A30071080318013E003EA4000A30F000AA
:1002D2000030F1002708A000A1012008F200210847
:1002E200F3000A128A154A270A128A117008831229
:1002F2000313A2002208A7002708303EA500003001
:1003020003180130A600003026023A3003192502F4
:10031200031C8F29F501F50A3F309429F501F50AEE
:100322008312031325080A128A1554260A128A1107
:1003320000308312031324023A3003192302031CF0
:10034200A929F501F50A3F300A128A155426080038
:10035200F501F50A8312031323080A128A1554269B
:1003620008000230FD007D08FC00831203133908E7
:100372000A128A114A210A128A11F501F50A2F304E
:100382000A128A1554260A128A110230FD007D08CB
:10039200FC008312031341080A128A114A210A122D
:1003A2008A11F501F50A2F300A128A1554260A120B
:1003B2008A11F501F50A32300A128A1554260A12F8
:1003C2008A11F501F50A30300A128A1554260A12EA
:1003D2008A110230FD007D08FC00831203134508D8
:1003E2000A128A114A210A128A11F501F50A2030ED
:1003F2000A128A1554260A128A11F501F50A2030CA
:100402000A128A1554260A128A112A2A7E300A12E0
:100412008A15A426080076300A128A15A426080036
:1004220072300A128A15A42608008A300A128A1526
:10043200A42608007A300A128A15A42608008630FB
:100442000A128A15A426080082300A128A15A426E6
:100452000800831203133C08003A0319312A482A80
:100462003B08013A0319072A033A03190C2A013AF5
:100472000319112A073A0319162A013A03191B2AEA
:10048200033A0319202A013A0319252A482A0800A7
:10049200273083120313A2002208F5002830A3009C
:1004A2002308F60026300A128A15F4260A128A1147
:1004B2001030F0000030F100831203132608A2006E
:1004C200A3012208F2002308F3000A128A154A2720
:1004D2000A128A117108FA007008F9000A30FB004A
:1004E2000030FC000A128A158F240A128A11831224
:1004F200031326080F397907BD007A0803187A0A10
:10050200BE001030F0000030F1002708A200A30165
:100512002208F2002308F3000A128A154A270A1257
:100522008A117108FA007008F9000A30FB000030E5
:10053200FC000A128A158F240A128A1183120313ED
:1005420027080F397907BF007A0803187A0AC00012
:100552001030F0000030F1002808A200A3012208A8
:10056200F2002308F3000A128A154A270A128A1196
:100572007108FA007008F9000A30FB000030FC0034
:100582000A128A158F240A128A1183120313280869
:100592000F397907C3007A0803187A0AC40047089A
:1005A200A200A3013E082306031DD92A3D08220604
:1005B200031908003D08A2002208C7002630A20045
:1005C2002208F5002730A3002308F6002830A400F3
:1005D2002408F70025300A128A11E4200A128A112F
:1005E2008312031325080F39A200A3012208BB00BE
:1005F2002308BC001030F0000030F1002608A200F1
:10060200A3012208F2002308F3000A128A154A27DE
:100612000A128A117108FA007008F9000A30FB0008
:100622000030FC000A128A158F240A128A118312E2
:10063200031326080F397907B9007A0803187A0AD2
:10064200BA001030F0000030F1002708A200A30128
:100652002208F2002308F3000A128A154A270A1216
:100662008A117108FA007008F9000A30FB000030A4
:10067200FC000A128A158F240A128A1183120313AC
:1006820027080F397907C1007A0803187A0AC200CD
:100692001030F0000030F1002808A200A301220867
:1006A200F2002308F3000A128A154A270A128A1155
:1006B2007108FA007008F9000A30FB000030FC00F3
:1006C2000A128A158F248312031328080F39790717
:1006D200C5007A0803187A0AC600080083120313B9
:1006E200480803197A2B0A128A1536250A128A112A
:1006F2006F2B4908031D4903031D532D3E08AC000F
:100702003D08AB004008AE003F08AD004408B00011
:100712004308AF00F50101300A128A1554260A1265
:100722008A115F300A128A15A4260A128A11FC0164
:10073200FC0A00300A128A1569240A128A110A1266
:100742008A1596250A128A11831203134808031D7B
:10075200DE2B0A128A1536250A128A118312031316
:100762004A1EC72B0130BD070318BE0A0030BE0760
:100772003E08803AFF0080307F02031DC22B1830F2
:100782003D02031CD32B83120313D12BCA1ED32B7E
:10079200FF30BD070318BE0AFF30BE07BE1FD32BB2
:1007A200BD01BE01831203134A080319A52B982B1E
:1007B2000A128A1536250A128A118312031348086F
:1007C200031DD92BFC0100300A128A1569240A1272
:1007D2008A1135300A128A15A4260A128A11831246
:1007E20003134808031D362C0A128A1536250A12ED
:1007F2008A11831203134A1E122C0130BF070318F9
:10080200C00A0030C0074008803AFF0080307F02F3
:10081200031D0D2C3C303F02031C1E2C83120313BC
:100822001C2CCA1E1E2CFF30BF070318C00AFF3043
:10083200C007C01F1E2CBF01C001831203134A0848
:100842000319F02BFC01FC0A00300A128A156924F4
:100852000A128A110A128A1596250A128A11F02B97
:100862000A128A1536250A128A11831203134808BE
:10087200031D312CFC0100300A128A1569240A1268
:100882008A1129300A128A15A4260A128A118312A1
:1008920003134808031D892C0A128A1536250A12E9
:1008A2008A11831203134A1E6A2C0130C3070318EC
:1008B200C40A0030C4074408803AFF0080307F0237
:1008C200031D652C3C304302031C762C8312031358
:1008D200742CCA1E762CFF30C3070318C40AFF30DB
:1008E200C407C41F762CC301C401831203134A0830
:1008F2000319482CFC01FC0A00300A128A156924EB
:100902000A128A110A128A1596250A128A11482C8D
:100912003E082C06031D8F2C3D082B06031DA12C1F
:1009220040082E06031D972C3F082D06031DA12CFF
:1009320044083006031D9F2C43082F060319482D37
:100942000A30F0000030F1003E08F3003D08F200EA
:100952000A128A154A270A128A117008831203138F
:10096200A8007108A900A80EA90EF030A905280850
:100972000F39A904F030A8050A30F0000030F10068
:100982003E08F3003D08F2000A128A1199200A1269
:100992008A117008831203132807AB007108031829
:1009A200710A2907AC000A30F0000030F10040085B
:1009B200F3003F08F2000A128A154A270A128A1126
:1009C200700883120313A8007108A900A80EA90ECB
:1009D200F030A90528080F39A904F030A8050A301B
:1009E200F0000030F1004008F3003F08F2000A1264
:1009F2008A1199200A128A11700883120313280798
:100A0200AD0071080318710A2907AE000A30F00020
:100A12000030F1004408F3004308F2000A128A157C
:100A22004A270A128A11700883120313A800710858
:100A3200A900A80EA90EF030A90528080F39A904AB
:100A4200F030A8050A30F0000030F1004408F3004D
:100A52004308F2000A128A1199200A128A117008B8
:100A6200831203132807AF0071080318710A2907BC
:100A7200B0002D08A8002808F5002F08A9002908B1
:100A8200F6002B080A128A15B6240A128A1183125A
:100A9200031348080319532D0A128A1536250A1220
:100AA2008A11482D490803195A2D02304906031D9F
:100AB20008003C08B2003B08B1003A08B40039080B
:100AC200B3004208B6004108B5004608B800450820
:100AD200B700F50101300A128A1554260A128A114A
:100AE20069300A128A15A4260A128A11FC01FC0A2C
:100AF20000300A128A1569240A128A110A128A110E
:100B0200B2210A128A11831203134808031DC12D50
:100B12000A128A1536250A128A11831203134A1EF3
:100B2200A82D0130C5070318C60A0030C6074608BB
:100B3200803AFF0080307F02031DA12D6430450200
:100B4200031CB62D83120313C501C601B62DCA1E9E
:100B5200B62DFF30C5070318C60AFF30C607C61FE9
:100B6200B62D6330B9000030BA00831203134A086D
:100B72000319842D772D0A128A1536250A128A1135
:100B8200831203134808031DBC2DFC0100300A1216
:100B92008A1569240A128A1155300A128A15A42666
:100BA2000A128A11831203134808031D1E2E0A1209
:100BB2008A1536250A128A11831203134A1EF62D4C
:100BC2000130C1070318C20A0030C2074208803A46
:100BD200FF0080307F02031DF02D0D304102031C07
:100BE200062E013083120313032ECA1E062EFF3077
:100BF200C1070318C20AFF30C20741084204031D9D
:100C0200062E0C30C1000030C200831203134A08C2
:100C12000319D32DFC01FC0A00300A128A1569243B
:100C22000A128A110A128A11B2210A128A11D32DCA
:100C32000A128A1536250A128A11831203134808EA
:100C4200031D192EFC0100300A128A1569240A12AA
:100C52008A114B300A128A15A4260A128A118312AB
:100C620003134808031D8E2E0A128A1536250A120E
:100C72008A11831203134A1E5D2E0130B90703182D
:100C8200BA0A0030BA074108FF3E1D3E84000A122C
:100C92008A1103200A128A11A8003A08803A803C7D
:100CA200031D552E390828020318762E01308312AF
:100CB2000313B9000030752ECA1E762EFF30B90715
:100CC2000318BA0AFF30BA07BA1F762E4108FF3E50
:100CD2001D3E84000A128A1103200A128A11A800FA
:100CE200A9012808B9002908BA00831203134A0887
:100CF2000319302EFC01FC0A00300A128A156924FD
:100D02000A128A110A128A11B2210A128A11302E8B
:100D12000A128A1536250A128A1183120313480809
:100D2200031D892EFC0100300A128A1569240A1259
:100D32008A1141300A128A15A4260A128A118312D4
:100D420003134808031DE42E0A128A1536250A12D7
:100D52008A11831203134A1EC32E0130BB070318E4
:100D6200BC0A0030BC073C08803AFF0080307F029A
:100D7200031DBD2E08303B02031CD12E013083120D
:100D82000313CE2ECA1ED12EFF30BB070318BC0A96
:100D9200FF30BC07BC1FD12E0730BB000030BC00A7
:100DA200831203134A080319A02EFC01FC0A003027
:100DB2000A128A1569240A128A110A128A11B221A8
:100DC2000A128A11A02E3C083206031DEA2E3B08A5
:100DD2003106031D042F3A083406031DF22E39088A
:100DE2003306031D042F42083606031DFA2E41085E
:100DF2003506031D042F46083806031D022F450839
:100E020037060319E22F0A30F0000030F1003C08E7
:100E1200F3003B08F2000A128A154A270A128A11C5
:100E2200700883120313A8007108A900A80EA90E66
:100E3200F030A90528080F39A904F030A8050A30B6
:100E4200F0000030F1003C08F3003B08F2000A1207
:100E52008A1199200A128A11700883120313280733
:100E6200B10071080318710A2907B2000A30F000B4
:100E72000030F1003A08F3003908F2000A128A152C
:100E82004A270A128A11700883120313A8007108F4
:100E9200A900A80EA90EF030A90528080F39A90447
:100EA200F030A8050A30F0000030F1003A08F300F3
:100EB2003908F2000A128A1199200A128A1170085E
:100EC200831203132807B30071080318710A290754
:100ED200B4000A30F0000030F1004208F30041088B
:100EE200F2000A128A154A270A128A11700883121E
:100EF2000313A8007108A900A80EA90EF030A905D5
:100F020028080F39A904F030A8050A30F000003093
:100F1200F1004208F3004108F2000A128A119920F6
:100F22000A128A117008831203132807B500710888
:100F32000318710A2907B6000A30F0000030F100E8
:100F42004608F3004508F2000A128A154A270A12D7
:100F52008A11700883120313A8007108A900A80E51
:100F6200A90EF030A90528080F39A904F030A80508
:100F72000A30F0000030F1004608F3004508F200A4
:100F82000A128A1199200A128A1170088312031315
:100F92002807B70071080318710A2907B800330837
:100FA200A8002808F5003508A9002908F600370826
:100FB200AA002A08F70031080A128A1508250A121F
:100FC2008A11831203134808031908000A128A15AA
:100FD20036250A128A11E22FC801C901CA018313F8
:100FE2004830FD000B30FE00EA30FF00393084004B
:0E0FF2000A128A151E2483010A128A15652D23
:101772000A128A15DE240800831603138810081043
:10178200080000008312031388140000831203135D
:10179200881008008312031308140A128A15C22340
:1017A20083120313881408008312031308100A1209
:1017B2008A15C2238312031308140800F400740864
:1017C2000A128A1543240A128A150A128A15C2239A
:1017D200080008340034013400340634003405347F
:1017E2000034053400340434003410340034EE3450
:1017F20083120313881000008312031308100000E1
:1018020083120313881400008312031308140800C0
:101812008312031388100814000083120313881420
:1018220000008312031308100000831203138810B0
:1018320008007E088A007F0882001A240A128A158C
:101842008000840A04087D0603190034FF0A031984
:10185200FE0A1E2CFC0100300A128A1569240A12A3
:101862008A150A128A1596250A128A15FC01FC0AA3
:1018720000300A128A1569240A128A150A128A117C
:10188200B2210800F200F301083073020318652C3C
:10189200F21F4F2C831203130814522C83120313CA
:1018A20008100A128A15C2230A128A157208F00059
:1018B2007007F1007108F2000130F0007008F307C0
:1018C20008307302031C492C831203130814080006
:1018D20083120313A00014302002031808007A2C8C
:1018E2002017882C1430762C5430FD007D08A00778
:1018F200882C7C08003A0319882C013A0319712CB0
:10190200033A0319732C013A0319752C882CA0177A
:10191200F50120080A128A155426080083120313BF
:10192200A001A101791C9D2C7B0883120313A0073F
:101932000318A10A7C08A10701300310FB0DFC0D5E
:10194200FF3E031D9E2C01300310FA0CF90CFF3EE2
:10195200031DA52C79087A04031D932C831203130B
:101962002108FA002008F9000800F7000A128A1577
:1019720009240A128A15D0300A128A15DF230A12A4
:101982008A1500300A128A15DF230A128A15760890
:101992000A128A15DF230A128A1575080A128A1595
:1019A200DF230A128A1577080A128A15DF230A1220
:1019B2008A150A128A15F9230800F3018316031304
:1019C2000814F201083072020318032D000083127A
:1019D200031388147308F0007007F1007108F30014
:1019E200081CF72C0130F0007008F3070000831286
:1019F200031388100130F0007008F20708307202F9
:101A0200031CE72C83160313081073080800F80060
:101A12000A128A1509240A128A15D0300A128A1566
:101A2200DF230A128A1503300A128A15DF230A12EB
:101A32008A1578080A128A15DF230A128A15750890
:101A42000A128A15DF230A128A1576080A128A15E3
:101A5200DF230A128A1577080A128A15DF230A126F
:101A62008A150A128A15F923080083120313C80182
:101A7200061E472D0430F000F00B3D2D402D831241
:101A82000313061E472DC801C80A08000030861835
:101A9200023006190138F0007008F3004A080F39C5
:101AA200F00002300310F00DFF3E031D532D0130F4
:101AB2007007F1007308710784000A128A1103206B
:101AC200F2007208CA0008000A128A15BD230A121F
:101AD2008A1500300A128A15C9250A128A150A12B5
:101AE2008A1504260A128A15F50101300A128A158E
:101AF20054260A128A150A128A1149220A128A15D2
:101B02000A128A152B240A128A150A128A153625F8
:101B12000A128A1583120313480803197C2D0A122C
:101B22008A116F230A128A157C2D0230FD007D086E
:101B3200FC00831203133D080A128A114A210A1279
:101B42008A15F501F50A3A300A128A1554260A1244
:101B52008A150230FD007D08FC00831203133F0842
:101B62000A128A114A210A128A15F501F50A3A3037
:101B72000A128A1554260A128A150230FD007D08BF
:101B8200FC008312031343080A128A114A21080037
:101B920083120313A0002730FD00F530FC00FC0B7C
:101BA200D02DFD0BD02D0F30FC007C0883160313C3
:101BB20088058612861306130F30FC007C088312F8
:101BC20003138805861206138613831203138616DF
:101BD2008816000083120313861200000A128A1567
:101BE200A3270A128A15F50128300A128A155426EB
:101BF2000A128A15F5018312031320080C380A12FF
:101C02008A1554260800F6010A128A1509240A12B6
:101C12008A15D0300A128A15DF230A128A1500307B
:101C22000A128A15DF230A128A150A128A15092452
:101C32000A128A15D1300A128A15DF230A128A156E
:101C42000A128A15B9230A128A15F5007508F600D8
:101C52000A128A15CB230A128A15F61F502E76080D
:101C62007F39F5007508F6000A128A1509240A124E
:101C72008A15D0300A128A15DF230A128A1500301B
:101C82000A128A15DF230A128A1576080A128A15A1
:101C9200DF230A128A150A128A15F92308000A128A
:101CA2008A15F9230800FA007A08F60004300310B6
:101CB200F60CFF3E031D582E7608F7007708F80051
:101CC2007A080F39F6007608F9007508031D6D2EA3
:101CD200831203138613702E831203138617831243
:101CE200031386167808F60004300310F60DFF3E43
:101CF200031D762E08080F397604F7007708FB00DB
:101D02007B088800000083120313861200008312EE
:101D1200031386167908F60004300310F60DFF3E11
:101D2200031D8E2E08080F397604F7007708FB0092
:101D32007B088800000083120313861200000A1237
:101D42008A15A327080083120313A1002108840027
:101D52000A128A1103200A128A15003A031908008E
:101D6200210884000A128A1103200A128A15253AD0
:101D7200031DDD2E0130FC007C08A1072108840030
:101D82000A128A1103200A128A15D03EFC007C082E
:101D9200A000A01BD52E2008803A783E0318D52E2D
:101DA200F501F50A2008E82EF501F50A25300A1298
:101DB2008A1554260A128A15F501F50A83120313AD
:101DC200210884000A128A1103200A128A150A12B3
:101DD2008A1554260A128A150130FC007C088312E7
:101DE2000313A107A72EF8000A128A1509240A1262
:101DF2008A15D0300A128A15DF230A128A1500309A
:101E02000A128A15DF230A128A150A128A15F92381
:101E12000A128A150A128A1509240A128A15D13061
:101E22000A128A15DF230A128A150A128A15B923A1
:101E32000A128A15F7007608840077088313800057
:101E42000A128A15D5230A128A150A128A15B9238B
:101E52000A128A15F7007508840077088313800038
:101E62000A128A15D5230A128A150A128A15B9236B
:101E72000A128A15F7007808840077088313800015
:101E82000A128A15CB230A128A150A128A15F92315
:101E92000800F601F11F542FF009F109F00A0319A5
:101EA200F10AF601F60AF31F5F2FF209F309F20AAB
:101EB2000319F30A0130F4007408F606F701F80179
:101EC200700871040319962FF501F50AF11B752F9D
:101ED20001300310F00DF10DFF3E031D6A2F01309A
:101EE200F4007408F507672F01300310F70DF80DA1
:101EF200FF3E031D762F71087302031D822F7008A7
:101F02007202031C8B2F7008F2027108031CF30388
:101F1200F302771401300310F10CF00CFF3E031DA5
:101F22008C2F0130F502031D752F760803199E2FA1
:101F3200F709F809F70A0319F80A7808F10077088F
:101F4200F0000800F401F030F0007008831603136B
:101F5200880483120313061786138312031386164B
:101F6200831203130808F00004300310F00CFF3E44
:101F7200031DB62F7008F1007108F4007408F00018
:101F820003300310F00DFF3E031DC22F0310700D2E
:101F9200F1007108F4008312031386120000831209
:101FA20003138616831203130808F000043003108B
:101FB200F00CFF3E031DD82F7008F1007108F300EA
:101FC2000F30F0007008F30574087304F000700815
:101FD200F40074088039F0007008F20083120313D1
:101FE200861200007208031DAE2F8312031306131C
:0E1FF2000F30F00070088316031388050800F6
:02400E00F13D82
:00000001FF
