:100000000A128A11ED2F00308A000408840A820740
:100010000034003402340434003403340034013436
:100020001034033402340034003403340234013415
:10003000003406340034043400340634053400340B
:10004000203406340534043400341F341D341F3486
:100050001E341F341E341F341F341E341F341E340C
:100060001F3453346534743420345334653463346A
:100070006F346E3464347334003453346534743400
:1000800020344D3469346E347534743465347334CB
:100090000034533465347434203444346134793456
:1000A00020342034003453346534743420344434E0
:1000B000613474346534203400345334653474341A
:1000C00020344D346F346E34743468340034533417
:1000D00065347434203448346F3475347234733476
:1000E0000034533465347434203459346534613405
:1000F0007234003457346534643400345434753405
:100100006534003446347234693400344D346F340D
:100110006E340034533475346E34003453346134E7
:0C012000743400345434683475340034F6
:100132000A128A152A230A128A1100300A128A1513
:100142001E250A128A110A128A15A4250A128A1178
:10015200F50101300A128A15F4250A128A110A12CF
:100162008A15B0230A128A11BB280A128A116F2338
:100172000A128A110A128A1149220A128A110A12D1
:100182008A1598230A128A110A128A15BC240A12A5
:100192008A11831203134B08031DB6280A128A150B
:1001A200B0230A128A11043083120313BB00CF302A
:1001B200BA000330B900B90BDC28BA0BDC28BB0B40
:1001C200DC28E328BB28F9000A128A1576230A12D2
:1001D2008A11D0300A128A154C230A128A1103306E
:1001E2000A128A154C230A128A110A128A156623E8
:1001F2000A128A110A128A1576230A128A11D1303A
:100202000A128A154C230A128A110A128A15262307
:100212000A128A11F8007908840078088313800092
:100222000A128A1542230A128A110A128A152623F1
:100232000A128A11F8007508840078088313800076
:100242000A128A1542230A128A110A128A152623D1
:100252000A128A11F8007608840078088313800055
:100262000A128A1542230A128A110A128A152623B1
:100272000A128A11F8007708840078088313800034
:100282000A128A1538230A128A110A128A1566235B
:10029200080083120313A7000A30F0000030F100B7
:1002A2002708A000A1012008F2002108F3000A1289
:1002B2008A1559250A128A117008303E83120313D7
:1002C200A30071080318013E003EA4000A30F000AA
:1002D2000030F1002708A000A1012008F200210847
:1002E200F3000A128A15EA260A128A11700883128A
:1002F2000313A2002208A7002708303EA500003001
:1003020003180130A600003026023A3003192502F4
:10031200031C8F29F501F50A3F309429F501F50AEE
:100322008312031325080A128A15F4250A128A1168
:1003320000308312031324023A3003192302031CF0
:10034200A929F501F50A3F300A128A15F425080099
:10035200F501F50A8312031323080A128A15F425FC
:1003620008000230FD007D08FC00831203133C08E4
:100372000A128A114A210A128A11F501F50A2F304E
:100382000A128A15F4250A128A110230FD007D082C
:10039200FC008312031344080A128A114A210A122A
:1003A2008A11F501F50A2F300A128A15F4250A126C
:1003B2008A11F501F50A32300A128A15F4250A1259
:1003C2008A11F501F50A30300A128A15F4250A124B
:1003D2008A110230FD007D08FC00831203134808D5
:1003E2000A128A114A210A128A11F501F50A2030ED
:1003F2000A128A15F4250A128A11F501F50A20302B
:100402000A128A15F4250A128A112A2A7E300A1241
:100412008A154426080076300A128A1544260800F6
:1004220072300A128A15442608008A300A128A1586
:10043200442608007A300A128A15442608008630BB
:100442000A128A154426080082300A128A154426A6
:100452000800831203133F08003A0319312A482A7D
:100462003E08013A0319072A033A03190C2A013AF2
:100472000319112A073A0319162A013A03191B2AEA
:10048200033A0319202A013A0319252A482A0800A7
:10049200273083120313A2002208F5002830A3009C
:1004A2002308F60026300A128A1594260A128A11A7
:1004B2001030F0000030F100831203132608A2006E
:1004C200A3012208F2002308F3000A128A15EA2681
:1004D2000A128A117108FA007008F9000A30FB004A
:1004E2000030FC000A128A1515240A128A1183129E
:1004F200031326080F397907C0007A0803187A0A0D
:10050200C1001030F0000030F1002708A200A30162
:100512002208F2002308F3000A128A15EA260A12B8
:100522008A117108FA007008F9000A30FB000030E5
:10053200FC000A128A1515240A128A118312031367
:1005420027080F397907C2007A0803187A0AC3000C
:100552001030F0000030F1002808A200A3012208A8
:10056200F2002308F3000A128A15EA260A128A11F7
:100572007108FA007008F9000A30FB000030FC0034
:100582000A128A1515240A128A11831203132808E3
:100592000F397907C6007A0803187A0AC7004A0891
:1005A200A200A30141082306031DD92A40082206FE
:1005B200031908004008A2002208CA002630A2003F
:1005C2002208F5002730A3002308F6002830A400F3
:1005D2002408F70025300A128A11E4200A128A112F
:1005E2008312031325080F39A200A3012208BE00BB
:1005F2002308BF001030F0000030F1002608A200EE
:10060200A3012208F2002308F3000A128A15EA263F
:100612000A128A117108FA007008F9000A30FB0008
:100622000030FC000A128A1515240A128A1183125C
:10063200031326080F397907BC007A0803187A0ACF
:10064200BD001030F0000030F1002708A200A30125
:100652002208F2002308F3000A128A15EA260A1277
:100662008A117108FA007008F9000A30FB000030A4
:10067200FC000A128A1515240A128A118312031326
:1006820027080F397907C4007A0803187A0AC500C7
:100692001030F0000030F1002808A200A301220867
:1006A200F2002308F3000A128A15EA260A128A11B6
:1006B2007108FA007008F9000A30FB000030FC00F3
:1006C2000A128A1515248312031328080F39790791
:1006D200C8007A0803187A0AC900080083120313B3
:1006E2004B0803197A2B0A128A15BC240A128A11A2
:1006F2006F2B4C08031D4C03031D532D4108AC0006
:100702004008AB004308AE004208AD004708B00005
:100712004608AF00F50101300A128A15F4250A12C3
:100722008A115F300A128A1544260A128A11FC01C4
:10073200FC0A00300A128A15EF230A128A110A12E1
:100742008A15EB240A128A11831203134B08031D24
:10075200DE2B0A128A15BC240A128A118312031391
:100762004D1EC72B0130C0070318C10A0030C10754
:100772004108803AFF0080307F02031DC22B1830EF
:100782004002031CD32B83120313D12BCD1ED32B78
:10079200FF30C0070318C10AFF30C107C11FD32BA6
:1007A200C001C101831203134D080319A52B982B15
:1007B2000A128A15BC240A128A11831203134B08E7
:1007C200031DD92BFC0100300A128A15EF230A12ED
:1007D2008A1135300A128A1544260A128A118312A6
:1007E20003134B08031D362C0A128A15BC240A1265
:1007F2008A11831203134D1E122C0130C2070318F3
:10080200C30A0030C3074308803AFF0080307F02EA
:10081200031D0D2C3C304202031C1E2C83120313B9
:100822001C2CCD1E1E2CFF30C2070318C30AFF303A
:10083200C307C31F1E2CC201C301831203134D0839
:100842000319F02BFC01FC0A00300A128A15EF236F
:100852000A128A110A128A15EB240A128A11F02B43
:100862000A128A15BC240A128A11831203134B0836
:10087200031D312CFC0100300A128A15EF230A12E3
:100882008A1129300A128A1544260A128A11831201
:1008920003134B08031D892C0A128A15BC240A1261
:1008A2008A11831203134D1E6A2C0130C6070318E6
:1008B200C70A0030C7074708803AFF0080307F022E
:1008C200031D652C3C304602031C762C8312031355
:1008D200742CCD1E762CFF30C6070318C70AFF30D2
:1008E200C707C71F762CC601C701831203134D0821
:1008F2000319482CFC01FC0A00300A128A15EF2366
:100902000A128A110A128A15EB240A128A11482C39
:1009120041082C06031D8F2C40082B06031DA12C19
:1009220043082E06031D972C42082D06031DA12CF9
:1009320047083006031D9F2C46082F060319482D31
:100942000A30F0000030F1004108F3004008F200E4
:100952000A128A15EA260A128A11700883120313F0
:10096200A8007108A900A80EA90EF030A905280850
:100972000F39A904F030A8050A30F0000030F10068
:100982004108F3004008F2000A128A1559250A129A
:100992008A117008831203132807AB007108031829
:1009A200710A2907AC000A30F0000030F100430858
:1009B200F3004208F2000A128A15EA260A128A1184
:1009C200700883120313A8007108A900A80EA90ECB
:1009D200F030A90528080F39A904F030A8050A301B
:1009E200F0000030F1004308F3004208F2000A125E
:1009F2008A1559250A128A117008831203132807CF
:100A0200AD0071080318710A2907AE000A30F00020
:100A12000030F1004708F3004608F2000A128A1576
:100A2200EA260A128A11700883120313A8007108B9
:100A3200A900A80EA90EF030A90528080F39A904AB
:100A4200F030A8050A30F0000030F1004708F3004A
:100A52004608F2000A128A1559250A128A117008EC
:100A6200831203132807AF0071080318710A2907BC
:100A7200B0002D08A8002808F5002F08A9002908B1
:100A8200F6002B080A128A153C240A128A118312D4
:100A920003134B080319532D0A128A15BC240A1298
:100AA2008A11482D4C0803195A2D02304C06031D99
:100AB20008003F08B2003E08B1003D08B4003C08FF
:100AC200B3004508B6004408B5004908B800480814
:100AD200B700F50101300A128A15F4250A128A11AB
:100AE20069300A128A1544260A128A11FC01FC0A8C
:100AF20000300A128A15EF230A128A110A128A1189
:100B0200B2210A128A11831203134B08031DC12D4D
:100B12000A128A15BC240A128A11831203134D1E6B
:100B2200A82D0130C8070318C90A0030C9074908AF
:100B3200803AFF0080307F02031DA12D64304802FD
:100B4200031CB62D83120313C801C901B62DCD1E95
:100B5200B62DFF30C8070318C90AFF30C907C91FDD
:100B6200B62D6330BC000030BD00831203134D0864
:100B72000319842D772D0A128A15BC240A128A11B0
:100B8200831203134B08031DBC2DFC0100300A1213
:100B92008A15EF230A128A1155300A128A15442641
:100BA2000A128A11831203134B08031D1E2E0A1206
:100BB2008A15BC240A128A11831203134D1EF62DC4
:100BC2000130C4070318C50A0030C5074508803A3A
:100BD200FF0080307F02031DF02D0D304402031C04
:100BE200062E013083120313032ECD1E062EFF3074
:100BF200C4070318C50AFF30C50744084504031D8E
:100C0200062E0C30C4000030C500831203134D08B9
:100C12000319D32DFC01FC0A00300A128A15EF23B6
:100C22000A128A110A128A11B2210A128A11D32DCA
:100C32000A128A15BC240A128A11831203134B0862
:100C4200031D192EFC0100300A128A15EF230A1225
:100C52008A114B300A128A1544260A128A1183120B
:100C620003134B08031D8E2E0A128A15BC240A1286
:100C72008A11831203134D1E5D2E0130BC07031827
:100C8200BD0A0030BD074408FF3E1D3E84000A1223
:100C92008A1103200A128A11A8003D08803A803C7A
:100CA200031D552E3C0828020318762E01308312AC
:100CB2000313BC000030752ECD1E762EFF30BC070C
:100CC2000318BD0AFF30BD07BD1F762E4408FF3E44
:100CD2001D3E84000A128A1103200A128A11A800FA
:100CE200A9012808BC002908BD00831203134D087E
:100CF2000319302EFC01FC0A00300A128A15EF2378
:100D02000A128A110A128A11B2210A128A11302E8B
:100D12000A128A15BC240A128A11831203134B0881
:100D2200031D892EFC0100300A128A15EF230A12D4
:100D32008A1141300A128A1544260A128A11831234
:100D420003134B08031DE42E0A128A15BC240A124F
:100D52008A11831203134D1EC32E0130BE070318DE
:100D6200BF0A0030BF073F08803AFF0080307F0291
:100D7200031DBD2E08303E02031CD12E013083120A
:100D82000313CE2ECD1ED12EFF30BE070318BF0A8D
:100D9200FF30BF07BF1FD12E0730BE000030BF009B
:100DA200831203134D080319A02EFC01FC0A003024
:100DB2000A128A15EF230A128A110A128A11B22123
:100DC2000A128A11A02E3F083206031DEA2E3E089F
:100DD2003106031D042F3D083406031DF22E3C0884
:100DE2003306031D042F45083606031DFA2E440858
:100DF2003506031D042F49083806031D022F480833
:100E020037060319E22F0A30F0000030F1003F08E4
:100E1200F3003E08F2000A128A15EA260A128A1123
:100E2200700883120313A8007108A900A80EA90E66
:100E3200F030A90528080F39A904F030A8050A30B6
:100E4200F0000030F1003F08F3003E08F2000A1201
:100E52008A1559250A128A1170088312031328076A
:100E6200B10071080318710A2907B2000A30F000B4
:100E72000030F1003D08F3003C08F2000A128A1526
:100E8200EA260A128A11700883120313A800710855
:100E9200A900A80EA90EF030A90528080F39A90447
:100EA200F030A8050A30F0000030F1003D08F300F0
:100EB2003C08F2000A128A1559250A128A11700892
:100EC200831203132807B30071080318710A290754
:100ED200B4000A30F0000030F1004508F300440885
:100EE200F2000A128A15EA260A128A11700883127F
:100EF2000313A8007108A900A80EA90EF030A905D5
:100F020028080F39A904F030A8050A30F000003093
:100F1200F1004508F3004408F2000A128A15592527
:100F22000A128A117008831203132807B500710888
:100F32000318710A2907B6000A30F0000030F100E8
:100F42004908F3004808F2000A128A15EA260A1232
:100F52008A11700883120313A8007108A900A80E51
:100F6200A90EF030A90528080F39A904F030A80508
:100F72000A30F0000030F1004908F3004808F2009E
:100F82000A128A1559250A128A117008831203134C
:100F92002807B70071080318710A2907B800330837
:100FA200A8002808F5003508A9002908F600370826
:100FB200AA002A08F70031080A128A158E240A129A
:100FC2008A11831203134B08031908000A128A15A7
:100FD200BC240A128A11E22FCB01CC01CD0183136A
:100FE2004B30FD000B30FE005730FF003C308400D8
:0E0FF2000A128A158B2383010A128A1199288C
:10164C000A128A15642408008316031388100810E4
:10165C000800000083120313881400008312031384
:10166C00881008008312031308140A128A152F23FA
:10167C0083120313881408008312031308100A1230
:10168C008A152F238312031308140800F40074081E
:10169C000A128A15C9230A128A150A128A152F23CF
:1016AC0008000834003401340034063400340534A6
:1016BC000034053400340434003410340034EE3477
:1016CC008312031388100000831203130810000008
:1016DC0083120313881400008312031308140800E8
:1016EC008312031388100814000083120313881448
:1016FC0000008312031308100000831203138810D8
:10170C0008007E088A007F08820087230A128A1547
:10171C008000840A04087D0603190034FF0A0319AB
:10172C00FE0A8B2BFC0100300A128A15EF230A12D9
:10173C008A150A128A15EB240A128A15FC01FC0A76
:10174C0000300A128A15EF230A128A150A128A111E
:10175C00B221080083160313071087100711831298
:10176C00031387140130F0000C30F1000A128A15B3
:10177C00A0270A128A150130F0000F30F1000A126E
:10178C008A15A0270800F200F30108307302031831
:10179C00EB2BF21FD52B831203130814D82B8312B7
:1017AC00031308100A128A152F230A128A157208BD
:1017BC00F0007007F1007108F2000130F0007008C1
:1017CC00F30708307302031CCF2B83120313081486
:1017DC00080083120313A000143020020318080021
:1017EC00002C20170E2C1430FC2B5430FD007D08DF
:1017FC00A0070E2C7C08003A03190E2C013A031991
:10180C00F72B033A0319F92B013A0319FB2B0E2C76
:10181C00A017F50120080A128A15F4250800831276
:10182C000313A001A101791C232C7B088312031341
:10183C00A0070318A10A7C08A10701300310FB0DB7
:10184C00FC0DFF3E031D242C01300310FA0CF90C87
:10185C00FF3E031D2B2C79087A04031D192C8312CF
:10186C0003132108FA002008F9000800F7000A12F7
:10187C008A1576230A128A15D0300A128A154C233F
:10188C000A128A1500300A128A154C230A128A157C
:10189C0076080A128A154C230A128A1575080A1240
:1018AC008A154C230A128A1577080A128A154C23BA
:1018BC000A128A150A128A1566230800F301831688
:1018CC0003130814F201083072020318892C00006B
:1018DC008312031388147308F0007007F100710869
:1018EC00F300081C7D2C0130F0007008F307000099
:1018FC008312031388100130F0007008F2070830CF
:10190C007202031C6D2C8316031308107308080055
:10191C00F8000A128A1576230A128A15D0300A1298
:10192C008A154C230A128A1503300A128A154C2385
:10193C000A128A1578080A128A154C230A128A157B
:10194C0075080A128A154C230A128A1576080A128F
:10195C008A154C230A128A1577080A128A154C2309
:10196C000A128A150A128A156623080083120313B9
:10197C00CB01061ECD2C0430F000F00BC32CC62C72
:10198C0083120313061ECD2CCB01CB0A08000030AA
:10199C008618023006190138F0007008F3004D0863
:1019AC000F39F00002300310F00DFF3E031DD92C4F
:1019BC0001307007F1007308710784000A128A1154
:1019CC000320F2007208CD0008000230FD007D08F3
:1019DC00FC008312031340080A128A114A210A12CE
:1019EC008A15F501F50A3A300A128A15F4250A12FD
:1019FC008A150230FD007D08FC0083120313420897
:101A0C000A128A114A210A128A15F501F50A3A308E
:101A1C000A128A15F4250A128A150230FD007D0877
:101A2C00FC008312031346080A128A114A2108008B
:101A3C0083120313A0002730FD00F530FC00FC0BD3
:101A4C00252DFD0B252D0F30FC007C088316031370
:101A5C0088058612861306130F30FC007C0883124F
:101A6C000313880586120613861383120313861636
:101A7C008816000083120313861200000A128A15BE
:101A8C0043270A128A15F50128300A128A15F42503
:101A9C000A128A15F5018312031320080C380A1256
:101AAC008A15F4250800F601F31F632DF209F309DA
:101ABC00F20A0319F30AF601F60AF11F6A2DF0096E
:101ACC00F109F00A0319F10A700871040319972D32
:101ADC00F501F50AF11B7E2D01300310F00DF10D0F
:101AEC00FF3E031D732D0130F4007408F507702DB3
:101AFC0071087302031D842D70087202031C8C2D57
:101B0C007008F2027108031CF303F3020130031096
:101B1C00F10CF00CFF3E031D8D2D0130F502031D61
:101B2C007E2D760803199F2DF209F309F20A031989
:101B3C00F30A7308F1007208F0000800F6010A12AB
:101B4C008A1576230A128A15D0300A128A154C236C
:101B5C000A128A1500300A128A154C230A128A15A9
:101B6C000A128A1576230A128A15D1300A128A159E
:101B7C004C230A128A150A128A1526230A128A1570
:101B8C00F5007508F6000A128A1538230A128A1510
:101B9C00F61FF02D76087F39F5007508F6000A124D
:101BAC008A1576230A128A15D0300A128A154C230C
:101BBC000A128A1500300A128A154C230A128A1549
:101BCC0076080A128A154C230A128A150A128A15EB
:101BDC00662308000A128A1566230800FA007A08A0
:101BEC00F60004300310F60CFF3E031DF82D7608AA
:101BFC00F7007708F8007A080F39F6007608F90034
:101C0C007508031D0D2E831203138613102E8312D9
:101C1C00031386178312031386167808F600043014
:101C2C000310F60DFF3E031D162E08080F3976041F
:101C3C00F7007708FB007B08880000008312031371
:101C4C00861200008312031386167908F6000430FE
:101C5C000310F60DFF3E031D2E2E08080F397604D7
:101C6C00F7007708FB007B08880000008312031341
:101C7C00861200000A128A154327080083120313E8
:101C8C00A100210884000A128A1103200A128A1565
:101C9C00003A03190800210884000A128A11032053
:101CAC000A128A15253A031D7D2E0130FC007C0892
:101CBC00A107210884000A128A1103200A128A152E
:101CCC00D03EFC007C08A000A01B752E2008803A9A
:101CDC00783E0318752EF501F50A2008882EF501BB
:101CEC00F50A25300A128A15F4250A128A15F5010F
:101CFC00F50A83120313210884000A128A110320A7
:101D0C000A128A150A128A15F4250A128A1501304C
:101D1C00FC007C0883120313A107472EF8000A125B
:101D2C008A1576230A128A15D0300A128A154C238A
:101D3C000A128A1500300A128A154C230A128A15C7
:101D4C000A128A1566230A128A150A128A15762334
:101D5C000A128A15D1300A128A154C230A128A15D6
:101D6C000A128A1526230A128A15F70076088400AF
:101D7C007708831380000A128A1542230A128A15E7
:101D8C000A128A1526230A128A15F7007508840090
:101D9C007708831380000A128A1542230A128A15C7
:101DAC000A128A1526230A128A15F700780884006D
:101DBC007708831380000A128A1538230A128A15B1
:101DCC000A128A1566230800F601F11FF42EF00999
:101DDC00F109F00A0319F10AF601F60AF31FFF2EB6
:101DEC00F209F309F20A0319F30A0130F40074083A
:101DFC00F606F701F801700871040319362FF50186
:101E0C00F50AF11B152F01300310F00DF10DFF3EFB
:101E1C00031D0A2F0130F4007408F507072F013059
:101E2C000310F70DF80DFF3E031D162F71087302FA
:101E3C00031D222F70087202031C2B2F7008F20254
:101E4C007108031CF303F302771401300310F10C37
:101E5C00F00CFF3E031D2C2F0130F502031D152F36
:101E6C00760803193E2FF709F809F70A0319F80A3F
:101E7C007808F1007708F0000800F401F030F00069
:101E8C007008831603138804831203130617861332
:101E9C00831203138616831203130808F000043010
:101EAC000310F00CFF3E031D562F7008F100710853
:101EBC00F4007408F00003300310F00DFF3E031D16
:101ECC00622F0310700DF1007108F40083120313DC
:101EDC00861200008312031386168312031308085C
:101EEC00F00004300310F00CFF3E031D782F700837
:101EFC00F1007108F3000F30F0007008F30574085E
:101F0C007304F0007008F40074088039F000700855
:101F1C00F20083120313861200007208031D4E2F69
:101F2C008312031306130F30F0007008831603138B
:101F3C00880508008312031387100630F300303035
:101F4C00F200F20BA72FF30BA72F0000F401F50101
:101F5C007508803AFF0080307F02031DB72F1030C8
:101F6C0074020318F32FF930F2000000F20BBB2FB0
:101F7C00BF2F0000F11FC62F831203130714C92FA4
:101F8C008312031307100310700DF000710DF10094
:101F9C00F930F2000000F20BD02FD42F0000831286
:101FAC0003130715F930F2000000F20BDA2FDE2FC5
:101FBC0000008312031307110130F4070318F50A0C
:101FCC000030F5077508803AFF0080307F02031D52
:101FDC00F12F10307402031CB92F0630F30030308F
:101FEC00F200F20BF72FF30BF72F00008312031301
:041FFC00871408003E
:02400E00F13D82
:00000001FF
