:100000000A128A11EA2FF40074080A128A15A22132
:100010000A128A110A128A15DF200800F9000A1252
:100020008A150C210A128A11D0300A128A11032073
:100030000A128A1103300A128A1103200A128A1145
:100040000A128A15FC200A128A110A128A150C213A
:100050000A128A11D1300A128A1103200A128A1157
:100060000A128A15D6200A128A11F800790884002B
:100070007808831380000A128A15F2200A128A1166
:100080000A128A15D6200A128A11F800750884000F
:100090007808831380000A128A15F2200A128A1146
:1000A0000A128A15D6200A128A11F80076088400EE
:1000B0007808831380000A128A15F2200A128A1126
:1000C0000A128A15D6200A128A11F80077088400CD
:1000D0007808831380000A128A15E8200A128A1110
:1000E0000A128A15FC200800273083120313A2008D
:1000F0002208F5002830A3002308F60026300A1253
:100100008A15A9240A128A111030F0000030F1007B
:10011000831203132608A200A3012208F200230879
:10012000F3000A128A15FF240A128A117108FA00D4
:100130007008F9000A30FB000030FC000A128A1532
:10014000EE210A128A118312031326080F39790748
:10015000D4007A0803187A0AD5001030F000003075
:10016000F1002708A200A3012208F2002308F300EF
:100170000A128A15FF240A128A117108FA007008FF
:10018000F9000A30FB000030FC000A128A15EE214B
:100190000A128A118312031327080F397907D60030
:1001A0007A0803187A0AD7001030F0000030F10006
:1001B0002808A200A3012208F2002308F3000A1273
:1001C0008A15FF240A128A117108FA007008F900D2
:1001D0000A30FB000030FC000A128A15EE210A12D8
:1001E0008A118312031328080F397907DC007A0873
:1001F00003187A0ADD006008A200A301550823064F
:10020000031D04295408220603199B295408A2003F
:100210002208E0002630A2002208F5002730A300C3
:100220002308F6002830A4002408F70025300A121D
:100230008A110E200A128A118312031325080F391E
:10024000A200A3012208D2002308D3001030F0003E
:100250000030F1002608A200A3012208F2002308C2
:10026000F3000A128A15FF240A128A117108FA0093
:100270007008F9000A30FB000030FC000A128A15F1
:10028000EE210A128A118312031326080F39790707
:10029000D0007A0803187A0AD1001030F00000303C
:1002A000F1002708A200A3012208F2002308F300AE
:1002B0000A128A15FF240A128A117108FA007008BE
:1002C000F9000A30FB000030FC000A128A15EE210A
:1002D0000A128A118312031327080F397907D800ED
:1002E0007A0803187A0AD9001030F0000030F100C3
:1002F0002808A200A3012208F2002308F3000A1232
:100300008A15FF240A128A117108FA007008F90090
:100310000A30FB000030FC000A128A15EE210A1296
:100320008A118312031328080F397907DE007A082F
:1003300003187A0ADF005B085706031DA1295A0833
:100340005606031908005708DB005608DA0001308A
:10035000E6070318E70A0030E7070030F500F6006B
:100360000230F7000030F80066300A128A15C42205
:1003700008000A128A15DA200A128A1100300A12BD
:100380008A15FB220A128A110A128A1509240A12F6
:100390008A11F50101300A128A1559240A128A11AC
:1003A0000030F500F6000230F7000030F80066304B
:1003B0000A128A15B5250A128A114430FC008030D1
:1003C000FD000A128A157D210A128A11FC01FC0A1D
:1003D00000300A128A15C8210A128A11A230FC00C4
:1003E0008030FD000A128A157D210A128A118312BB
:1003F00003136708A3006608A2000530C70047087A
:10040000A4000A128A15C5260A128A115530FC006A
:100410008030FD000A128A157D210A128A110430EB
:1004200083120313C900CF30C8000330C700C70BC5
:10043000172AC80B172AC90B172A1E2A0430831241
:100440000313C900CF30C8000330C700C70B262AEA
:10045000C80B262AC90B262A2D2A0430831203131F
:10046000C900CF30C8000330C700C70B352AC80BFE
:10047000352AC90B352A3C2A043083120313C900DC
:10048000CF30C8000330C700C70B442AC80B442A2A
:10049000C90B442A4B2AFF3083120313E6070318C3
:1004A000E70AFF30E707F50101300A128A155924DF
:1004B0000A128A11C02A0A128A1109230A128A1101
:1004C000C02A651E6E2A0130C7004708E1070430C4
:1004D0006106031D792AE101E10A792AE51E792ADC
:1004E0000130E1026108031D792A0330C700470883
:1004F000E10061030319032B5708FA005608F900BD
:100500003C30FB000030FC000A128A15EE210A1272
:100510008A11831203135C087907C7005D0803186A
:100520005D0A7A07C8004708143EE200480803182D
:10053000013E003EE300FC0109300A128A15C82181
:100540000A128A110230831203136106031DB12AB5
:100550007730FC008030FD000A128A157D210A12D6
:100560008A110330831203136106031DC02A7E30F3
:10057000FC008030FD000A128A157D210A128A11C2
:100580000A128A1174200A128A110A128A155B2132
:100590000A128A110A128A1595220A128A118312E6
:1005A00003136408031D5B2A8312031365083039A3
:1005B000031D612A83120313620863040319C02A0E
:1005C0005708FA005608F9003C30FB000030FC00E8
:1005D0000A128A15EE210A128A11831203135C088B
:1005E0007907C7005D0803185D0A7A07C800630829
:1005F000803AC9004808803A4902031D012B470888
:1006000062020318C02A0A128A152E210A128A11C0
:10061000C02A8312031364080319142B0A128A15C3
:1006200095220A128A11092B610303191B2B023030
:100630006106031D1C2D5508BA005408B90057085F
:10064000BC005608BB005D08BE005C08BD00F5019B
:1006500001300A128A1559240A128A113F30FC000F
:100660008030FD000A128A157D210A128A11973006
:10067000FC008030FD000A128A157D210A128A11C1
:10068000FC01FC0A00300A128A15C8210A128A11DC
:100690000A128A1536230A128A1183120313640878
:1006A000031D872B0A128A1595220A128A118312BA
:1006B0000313651E6F2B0130D4070318D50A0030D1
:1006C000D5075508803AFF0080307F02031D6A2B52
:1006D00018305402031C7B2B83120313792BE51E65
:1006E0007B2BFF30D4070318D50AFF30D507D51F61
:1006F0007B2BD401D501831203136508303903190C
:100700004D2B402B0A128A1595220A128A11831248
:1007100003136408031D822BFC0100300A128A15A2
:10072000C8210A128A113F30FC008030FD000A12F5
:100730008A157D210A128A116F30FC008030FD007D
:100740000A128A157D210A128A1183120313640882
:10075000031DEC2B0A128A1595220A128A118312A4
:100760000313651EC72B0130D6070318D70A0030C4
:10077000D7075708803AFF0080307F02031DC22B45
:100780003C305602031CD32B83120313D12BE51EDE
:10079000D32BFF30D6070318D70AFF30D707D71F50
:1007A000D32BD601D70183120313650830390319FF
:1007B000A52BFC01FC0A00300A128A15C8210A1276
:1007C0008A110A128A1536230A128A11A52B0A12D7
:1007D0008A1595220A128A11831203136408031DD5
:1007E000E72BFC0100300A128A15C8210A128A116F
:1007F0003F30FC008030FD000A128A157D210A126C
:100800008A116730FC008030FD000A128A157D21B4
:100810000A128A11831203136408031D4C2C0A1256
:100820008A1595220A128A1183120313651E2C2C35
:100830000130DC070318DD0A0030DD075D08803A6F
:10084000FF0080307F02031D272C3C305C02031C1C
:10085000382C83120313362CE51E382CFF30DC07AE
:100860000318DD0AFF30DD07DD1F382CDC01DD0158
:10087000831203136508303903190A2CFC01FC0AA2
:1008800000300A128A15C8210A128A110A128A1522
:1008900036230A128A110A2C55083A06031D522CD7
:1008A00054083906031D642C57083C06031D5A2CB6
:1008B00056083B06031D642C5D083E06031D622C92
:1008C0005C083D060319112D0A30F0000030F100DC
:1008D0005508F3005408F2000A128A15FF240A1280
:1008E0008A11700883120313B6007108B700B60EA0
:1008F000B70EF030B70536080F39B704F030B6053B
:100900000A30F0000030F1005508F3005408F200FE
:100910000A128A1572230A128A11700883120313AD
:100920003607B90071080318710A3707BA000A3090
:10093000F0000030F1005708F3005608F2000A12E8
:100940008A15FF240A128A11700883120313B60055
:100950007108B700B60EB70EF030B70536080F397C
:10096000B704F030B6050A30F0000030F100570847
:10097000F3005608F2000A128A1572230A128A112D
:100980007008831203133607BB0071080318710A3D
:100990003707BC000A30F0000030F1005D08F300BA
:1009A0005C08F2000A128A15FF240A128A117008E4
:1009B00083120313B6007108B700B60EB70EF030FD
:1009C000B70536080F39B704F030B6050A30F00025
:1009D0000030F1005D08F3005C08F2000A128A158D
:1009E00072230A128A117008831203133607BD009E
:1009F00071080318710A3707BE003B08B6003608B5
:100A0000F5003D08B7003708F60039080A128A15C4
:100A100015220A128A11831203135708DB005608A5
:100A2000DA0083120313640803191C2D0A128A15B5
:100A300095220A128A11112D61030319232D033007
:100A40006106031D08005308C0005208BF0051088A
:100A5000C2005008C1005908C4005808C3005F080C
:100A6000C6005E08C500F50101300A128A15592436
:100A70000A128A113F30FC008030FD000A128A15EC
:100A80007D210A128A119D30FC008030FD000A127F
:100A90008A157D210A128A11FC01FC0A00300A1213
:100AA0008A15C8210A128A110A128A1513260A12F7
:100AB0008A11831203136408031D972D0A128A15E5
:100AC00095220A128A1183120313651E7D2D0130AF
:100AD000DE070318DF0A0030DF075F08803AFF00F7
:100AE00080307F02031D762D64305E02031C8B2D47
:100AF00083120313DE01DF018B2DE51E8B2DFF30EA
:100B0000DE070318DF0AFF30DF07DF1F8B2D63309E
:100B1000D0000030D1008312031365083039031967
:100B2000592D4C2D0A128A1595220A128A11831208
:100B300003136408031D922DFC0100300A128A156C
:100B4000C8210A128A113F30FC008030FD000A12D1
:100B50008A157D210A128A119130FC008030FD0037
:100B60000A128A157D210A128A118312031364085E
:100B7000031D012E0A128A1595220A128A11831268
:100B80000313651ED82D0130D8070318D90A003089
:100B9000D9075908803AFF0080307F02031DD22D0B
:100BA0000D305802031CE82D013083120313E52D8C
:100BB000E51EE82DFF30D8070318D90AFF30D90702
:100BC00058085904031DE82D0C30D8000030D90016
:100BD00083120313650830390319B52DFC01FC0A93
:100BE00000300A128A15C8210A128A110A128A15BF
:100BF00013260A128A11B52D0A128A1595220A1295
:100C00008A11831203136408031DFC2DFC010030BC
:100C10000A128A15C8210A128A113F30FC0080305E
:100C2000FD000A128A157D210A128A118B30FC0000
:100C30008030FD000A128A157D210A128A11831262
:100C400003136408031D7E2E0A128A1595220A12C8
:100C50008A1183120313651E4C2E0130D00703182E
:100C6000D10A0030D1075808FF3E333E84000A12F3
:100C70008A150A200A128A11B6005108803A803C6F
:100C8000031D442E500836020318652E01308312CE
:100C90000313D0000030642EE51E652EFF30D00710
:100CA0000318D10AFF30D107D11F652E5808FF3E27
:100CB000333E84000A128A150A200A128A11B600ED
:100CC000B7013608D0003708D10083120313650836
:100CD000303903191F2EFC01FC0A00300A128A1554
:100CE000C8210A128A110A128A1513260A128A11B9
:100CF0001F2E0A128A1595220A128A1183120313D3
:100D00006408031D792EFC0100300A128A15C821DF
:100D10000A128A113F30FC008030FD000A128A1549
:100D20007D210A128A118530FC008030FD000A12F4
:100D30008A157D210A128A11831203136408031D88
:100D4000E12E0A128A1595220A128A1183120313C0
:100D5000651EBF2E0130D2070318D30A0030D30717
:100D60005308803AFF0080307F02031DB92E0830FF
:100D70005202031CCD2E013083120313CA2EE51E2E
:100D8000CD2EFF30D2070318D30AFF30D307D31F6D
:100D9000CD2E0730D2000030D30083120313650834
:100DA000303903199C2EFC01FC0A00300A128A1506
:100DB000C8210A128A110A128A1513260A128A11E8
:100DC0009C2E53084006031DE72E52083F06031DC4
:100DD000012F51084206031DEF2E50084106031D46
:100DE000012F59084406031DF72E58084306031D1A
:100DF000012F5F084606031DFF2E5E0845060319F6
:100E0000DF2F0A30F0000030F1005308F3005208E1
:100E1000F2000A128A15FF240A128A11700883123E
:100E20000313B6007108B700B60EB70EF030B70561
:100E300036080F39B704F030B6050A30F00000303C
:100E4000F1005308F3005208F2000A128A157223C7
:100E50000A128A117008831203133607BF00710843
:100E60000318710A3707C0000A30F0000030F100A3
:100E70005108F3005008F2000A128A15FF240A12E2
:100E80008A11700883120313B6007108B700B60EFA
:100E9000B70EF030B70536080F39B704F030B60595
:100EA0000A30F0000030F1005108F3005008F20061
:100EB0000A128A1572230A128A1170088312031308
:100EC0003607C10071080318710A3707C2000A30DB
:100ED000F0000030F1005908F3005808F2000A123F
:100EE0008A15FF240A128A11700883120313B600B0
:100EF0007108B700B60EB70EF030B70536080F39D7
:100F0000B704F030B6050A30F0000030F10059089F
:100F1000F3005808F2000A128A1572230A128A1185
:100F20007008831203133607C30071080318710A8F
:100F30003707C4000A30F0000030F1005F08F3000A
:100F40005E08F2000A128A15FF240A128A1170083C
:100F500083120313B6007108B700B60EB70EF03057
:100F6000B70536080F39B704F030B6050A30F0007F
:100F70000030F1005F08F3005E08F2000A128A15E3
:100F800072230A128A117008831203133607C500F0
:100F900071080318710A3707C6004108B600360801
:100FA000F5004308B7003708F6004508B8003808D0
:100FB000F7003F080A128A1567220A128A11831263
:100FC00003136408031908000A128A1595220A12ED
:100FD0008A11DF2FE201E301E401E501E601E70107
:100FE00083136230FD000930FE004330FF004A30B9
:100FF00084000A128A15212183010A128A11B92953
:10100000FF1B0A2883137F1883170008840A03191B
:10101000FF0A080008308A000408840A82070034A6
:101020000034023404340034033400340134103406
:101030000334023400340034033402340134003405
:1010400006340034043400340634053400342034CB
:1010500006340534043400344D346F346E34543463
:1010600075346534573465346434543468347534B5
:1010700046347234693453346134743453347534BF
:101080006E3400341F341D341F341E341F341E349C
:101090001F341F341E341F341E341F345334653440
:1010A00074342034003453347434613472347434FE
:1010B00069346E346734203463346F3475346E347D
:1010C000743465347234003420346D3469346E34D1
:1010D00075347434653473342E3400342034203441
:1010E0002034203420342034203400345334653408
:1010F00063346F346E346434733400344D34693483
:101100006E34753474346534733400345434693453
:101110006D34653420343F340034443461347434E5
:10112000653420343F34003444346134793420341D
:101130002034003444346134743465342034003451
:101140004D346F346E3474346834003448346F3442
:101150007534723473340034593465346134723404
:0A116000003461347434203400348C
:1011AC000A128A153D2208008316031388100810B2
:1011BC000800000083120313881400008312031329
:1011CC00881008008312031308140A128A15DF20F2
:1011DC0083120313881408008312031308100A12D5
:1011EC008A15DF20831203130814080083120313DB
:1011FC0088100000831203130810000083120313DD
:10120C0088140000831203130814080083120313BC
:10121C008810081400008312031388140000831232
:10122C0003130810000083120313881008007E08B3
:10123C008A007F0882001D210A128A158000840A08
:10124C0004087D0603190034FF0A0319FE0A21293C
:10125C0083120313E201E301E101E10AFC0109300D
:10126C000A128A15C8210A128A155F30FC008030D8
:10127C00FD000A128A157D2108002D342D342D34E1
:10128C002D342D3400340834003401340034063449
:10129C0000340534003405340034FF34FF34043496
:1012AC00003410340034EE340134FC0100300A12E6
:1012BC008A15C8210A128A150A128A1536230A12AF
:1012CC008A15FC01FC0A00300A128A15C8210A1280
:1012DC008A150A128A1513260A128A158312031309
:1012EC006103031D08000A128A15BD2308007D083E
:1012FC0083120313FF007C0884000A128A15002055
:10130C000A128A15003A03190800F501F50A7D083E
:10131C0083120313FF007C0884000A128A15002034
:10132C000A128A150A128A1559240A128A150130D2
:10133C00FC070318FD0A7D29F200F3010830730243
:10134C000318C429F21FAE29831203130814B12900
:10135C008312031308100A128A15DF200A128A1549
:10136C007208F0007007F1007108F2000130F00013
:10137C007008F30708307302031CA82983120313A7
:10138C000814080083120313A00014302002031861
:10139C000800D9292017E7291430D5295430FD002D
:1013AC007D08A007E7297C08003A0319E729013AD0
:1013BC000319D029033A0319D229013A0319D42964
:1013CC00E729A017F50120080A128A1559240800EC
:1013DC0083120313A001A101791CFC297B08831241
:1013EC000313A0070318A10A7C08A10701300310FE
:1013FC00FB0DFC0DFF3E031DFD2901300310FA0C03
:10140C00F90CFF3E031D042A79087A04031DF22906
:10141C00831203132108FA002008F9000800F700D2
:10142C000A128A150C210A128A15D0300A128A1156
:10143C0003200A128A1500300A128A1103200A129C
:10144C008A1576080A128A1103200A128A15750861
:10145C000A128A1103200A128A1577080A128A11B5
:10146C0003200A128A150A128A15FC200800F301BF
:10147C00831603130814F201083072020318622A4F
:10148C0000008312031388147308F0007007F10036
:10149C007108F300081C562A0130F0007008F3079D
:1014AC0000008312031388100130F0007008F2075B
:1014BC0008307202031C462A8316031308107308A3
:1014CC000800F8000A128A150C210A128A15D0306D
:1014DC000A128A1103200A128A1503300A128A1181
:1014EC0003200A128A1578080A128A1103200A129C
:1014FC008A1575080A128A1103200A128A157608B1
:10150C000A128A1103200A128A1577080A128A1104
:10151C0003200A128A150A128A15FC20080083126D
:10152C000313E401061EA62A0430F000F00B9C2ADB
:10153C009F2A83120313061EA62AE401E40A08005C
:10154C0000308618023006190138F0007008F300DC
:10155C0065080F39F00002300310F00DFF3E031D3B
:10156C00B22A01307007F1007308710784000A1267
:10157C008A150A20F2007208E5000800FB000A1226
:10158C008A150C210A128A15D0300A128A110320EE
:10159C000A128A157508083E0A128A1103200A12CB
:1015AC008A157808FA00F703770AF9000319F8038B
:1015BC007A08803AFF0080307F02031DE72A013051
:1015CC007902031CF72A7B088400831300080A1293
:1015DC008A1103200A128A150130F9007908FB07D9
:1015EC00D72A0A128A15FC20080083120313A000C4
:1015FC002730FD00F530FC00FC0B022BFD0B022B01
:10160C000F30FC007C0883160313880586128811A2
:10161C0008110F30FC007C08831203138805861216
:10162C000811881183120313861688160000831282
:10163C000313861200000A128A1558250A128A15FD
:10164C00F50128300A128A1559240A128A15F50157
:10165C008312031320080C380A128A155924080027
:10166C00831203135508A3005408A2000230B300E0
:10167C003308A4000A128A15C5260A128A15F50128
:10168C00F50A3A300A128A1559240A128A1583125D
:10169C0003135708A3005608A2000230B300330806
:1016AC00A4000A128A15C5260A128A15F501F50A34
:1016BC003A300A128A1559240A128A158312031316
:1016CC005D08A3005C08A2000230B3003308A4003C
:1016DC000A128A15C5260800F601F31F7C2BF209A5
:1016EC00F309F20A0319F30AF601F60AF11F832B28
:1016FC00F009F109F00A0319F10A700871040319D1
:10170C00B02BF501F50AF11B972B01300310F00DEE
:10171C00F10DFF3E031D8C2B0130F4007408F5070E
:10172C00892B71087302031D9D2B70087202031C18
:10173C00A52B7008F2027108031CF303F3020130AD
:10174C000310F10CF00CFF3E031DA62B0130F5022B
:10175C00031D972B76080319B82BF209F309F20A2B
:10176C000319F30A7308F1007208F0000800FC0179
:10177C000A300A128A15C8210A128A153C30F00068
:10178C000030F100831203136708F3006608F200BF
:10179C000A128A15FF240A128A1571088312031380
:1017AC00B5007008B4003508A3003408A200A401E9
:1017BC00A40A0A128A15C5260A128A15F501F50A19
:1017CC003A300A128A1559240A128A153C30F00054
:1017DC000030F100831203136708F3006608F2006F
:1017EC000A128A1572230A128A15710883120313BE
:1017FC00A3007008A2000230B3003308A4000A1240
:10180C008A15C5260800F6010A128A150C210A123F
:10181C008A15D0300A128A1103200A128A15003058
:10182C000A128A1103200A128A150A128A150C212F
:10183C000A128A15D1300A128A1103200A128A154B
:10184C000A128A15D6200A128A15F5007508F600B8
:10185C000A128A15E8200A128A15F61F552C7608EA
:10186C007F39F5007508F6000A128A150C210A1248
:10187C008A15D0300A128A1103200A128A150030F8
:10188C000A128A1103200A128A1576080A128A1182
:10189C0003200A128A150A128A15FC2008000A1263
:1018AC008A15FC200800FA007A08F60004300310B0
:1018BC00F60CFF3E031D5D2C7608F7007708F80048
:1018CC007A080F39F6007608F9007508031D722C9A
:1018DC00831203138811752C83120313881583123A
:1018EC00031386167808F60004300310F60DFF3E3D
:1018FC00031D7B2C08080F397604F7007708FB00D2
:10190C007B088800000083120313861200008312E8
:10191C00031386167908F60004300310F60DFF3E0B
:10192C00031D932C08080F397604F7007708FB0089
:10193C007B088800000083120313861200000A1231
:10194C008A1558250800F8000A128A150C210A126B
:10195C008A15D0300A128A1103200A128A15003017
:10196C000A128A1103200A128A150A128A15FC20FF
:10197C000A128A150A128A150C210A128A15D130FC
:10198C000A128A1103200A128A150A128A15D62005
:10199C000A128A15F70076088400770883138000F2
:1019AC000A128A15F2200A128A150A128A15D620F2
:1019BC000A128A15F70075088400770883138000D3
:1019CC000A128A15F2200A128A150A128A15D620D2
:1019DC000A128A15F70078088400770883138000B0
:1019EC000A128A15E8200A128A150A128A15FC2096
:1019FC000800F601F11F092DF009F109F00A03198D
:101A0C00F10AF601F60AF31F142DF209F309F20A92
:101A1C000319F30A0130F4007408F606F701F80113
:101A2C007008710403194B2DF501F50AF11B2A2DD1
:101A3C0001300310F00DF10DFF3E031D1F2D013081
:101A4C00F4007408F5071C2D01300310F70DF80D88
:101A5C00FF3E031D2B2D71087302031D372D7008DB
:101A6C007202031C402D7008F2027108031CF30370
:101A7C00F302771401300310F10CF00CFF3E031D40
:101A8C00412D0130F502031D2A2D76080319532D23
:101A9C00F709F809F70A0319F80A7808F10077082A
:101AAC00F0000800F401F030F00070088316031306
:101ABC0088048312031308158811831203138616E6
:101ACC00831203130808F00004300310F00CFF3EDF
:101ADC00031D6B2D7008F1007108F4007408F00000
:101AEC0003300310F00DFF3E031D772D0310700D16
:101AFC00F1007108F40083120313861200008312A4
:101B0C0003138616831203130808F0000430031025
:101B1C00F00CFF3E031D8D2D7008F1007108F300D1
:101B2C000F30F0007008F30574087304F0007008AF
:101B3C00F40074088039F0007008F200831203136B
:101B4C00861200007208031D632D83120313081103
:101B5C000F30F00070088316031388050800FB0093
:101B6C000A128A150C210A128A15D0300A128A110F
:101B7C0003200A128A157508083E0A128A110320DE
:101B8C000A128A150A128A15FC200A128A150A12E0
:101B9C008A150C210A128A15D1300A128A110320D7
:101BAC000A128A157808FA00F703770AF900031964
:101BBC00F8037A08803AFF0080307F02031DE82D7D
:101BCC0002307902031CFA2D0A128A15D6200A1249
:101BDC008A15F9007B088400790883138000013092
:101BEC00F9007908FB07D82D0A128A15F2200A127F
:101BFC008A150A128A15D6200A128A15F9007B0852
:101C0C0084007908831380000A128A15E8200A12CE
:101C1C008A150A128A15FC20080083120313520835
:101C2C00FF3EF90053080318013EFF3EFA00033053
:101C3C00FB000030FC000A128A15EE210A128A15EC
:101C4C007A0883120313B5007908B4005108A30075
:101C5C005008A2000230B3003308A4000A128A15FF
:101C6C00C5260A128A15F501F50A2F300A128A15B3
:101C7C0059240A128A15831203135908A300580811
:101C8C00A2000230B3003308A4000A128A15C5263C
:101C9C000A128A15F501F50A2F300A128A155924F1
:101CAC000A128A15F501F50A32300A128A155924DE
:101CBC000A128A15F501F50A30300A128A155924D0
:101CCC000A128A15831203135F08A3005E08A20090
:101CDC000230B3003308A4000A128A15C5260A1272
:101CEC008A15F501F50A20300A128A1559240A12B0
:101CFC008A15F501F50A20300A128A1559240A12A0
:101D0C008A15F501F50A8312031334081D3E84006D
:101D1C000A128A150A200A128A150A128A155924DF
:101D2C000A128A15013083120313B4070318B50A7B
:101D3C000030B507F501F50A34081D3E84000A127F
:101D4C008A150A200A128A150A128A1559240A12AF
:101D5C008A15013083120313B4070318B50A003037
:101D6C00B507F501F50A34081D3E84000A128A15E0
:101D7C000A200A128A150A128A15592408002A30D8
:101D8C008400831203134A0883138000840A4B08CF
:101D9C008000840A4C088000840A4D088000840A64
:101DAC004E088000840A4F088000A801A901053064
:101DBC00B0000030B1002403FF3A053EA500250811
:101DCC00A4001030F0002730F1002308F3002208A3
:101DDC00F2000A128A15FF240A128A15700883125F
:101DEC000313A5002508B20032080319172F320877
:101DFC00A500A6012508F9002608FA001030FB0002
:101E0C002730FC000A128A15EE210A128A1579086D
:101E1C0083120313A2027A08031CA303A302B001CA
:101E2C00B1013208303EA5002508AA00E830F000C8
:101E3C000330F1002308F3002208F2000A128A157D
:101E4C00FF240A128A15700883120313A5002508B3
:101E5C00B20032080319532F3208A500A601250839
:101E6C00F9002608FA00E830FB000330FC000A12E7
:101E7C008A15EE210A128A15790883120313A2021D
:101E8C007A08031CA303A302053030063104031D9A
:101E9C00532F0130B0000030B1003208303EA500A5
:101EAC002508AB006430F0000030F1002308F3008B
:101EBC002208F2000A128A15FF240A128A157008E9
:101ECC0083120313A5002508B200320803198F2FC3
:101EDC003208A500A6012508F9002608FA0064308E
:101EEC00FB000030FC000A128A15EE210A128A153A
:101EFC00790883120313A2027A08031CA303A3021A
:101F0C00053030063104031D8F2F0230B000003035
:101F1C00B1003208303EA5002508AC000A30F000B4
:101F2C000030F1002308F3002208F2000A128A158F
:101F3C00FF240A128A15700883120313A5002508C2
:101F4C00B20032080319CB2F3208A500A6012508D0
:101F5C00F9002608FA000A30FB000030FC000A12D7
:101F6C008A15EE210A128A15790883120313A2022C
:101F7C007A08031CA303A302053030063104031DA9
:101F8C00CB2F0330B0000030B1003208303EA5003A
:101F9C002508AD00053030063104031DD92F04305F
:101FAC00B0000030B1002208303EA5002508AE007C
:101FBC002408A500A601A51BA6033108803AA7009A
:101FCC002608803A2702031DED2F2508300203183E
:101FDC00F52F831203133008A5002508A4008312E3
:101FEC00031324082A3EFC000030FD000A128A1557
:041FFC007D2108003B
:02400E00B13FC0
:00000001FF
