:060000000A128A11E82F2C
:10000A0083120313E401061E16280430F000F00BD5
:10001A000C280F2883120313061E1628E401E40A8B
:10002A00080000308618023006190138F0007008FE
:10003A00F30065080F39F00002300310F00DFF3E9F
:10004A00031D222801307007F1007308710784002C
:10005A000A128A150A20F2007208E50008000A123C
:10006A008A151B210A128A1100300A128A1598224F
:10007A000A128A110A128A15AA230A128A11F5018A
:10008A0001300A128A155A230A128A110030F20024
:10009A00F3000230F4000030F50068300A128A15C5
:1000AA00A3240A128A110230F2000030F30002304F
:1000BA00F4000030F50066300A128A15A3240A12E9
:1000CA008A114430FC008030FD000A128A159921F9
:1000DA000A128A11FC01FC0A00300A128A15BE2192
:1000EA000A128A119830FC008030FD000A128A1523
:1000FA0099210A128A11831203136708A30066085A
:10010A00A200A401A40A0A128A15C5260A128A1193
:10011A009C30FC008030FD000A128A1599210A12CF
:10012A008A11831203136908A3006808A200A401B4
:10013A00A40A0A128A15C5260A128A1104308312E1
:10014A000313C900CF30C8000330C700C70BAB2860
:10015A00C80BAB28C90BAB28B2280430831203138F
:10016A00C900CF30C8000330C700C70BBA28C80B74
:10017A00BA28C90BBA28C128043083120313C9004C
:10018A00CF30C8000330C700C70BC928C80BC9281D
:10019A00C90BC928D028043083120313C900CF30F1
:1001AA00C8000330C700C70BD828C80BD828C90B0A
:1001BA00D828DF28FF3083120313E8070318E90A57
:1001CA00FF30E907F50101300A128A155A230A128B
:1001DA008A1154290A128A1107230A128A115429E8
:1001EA00651E02290130C7004708E107043061068D
:1001FA00031D0D29E101E10A0D29E51E0D29013032
:10020A00E1026108031D0D290330C7004708E10018
:10021A006103031997295708FA005608F9003C3078
:10022A00FB000030FC000A128A15E4210A128A1126
:10023A00831203135C087907C7005D0803185D0A77
:10024A007A07C8004708143EE20048080318013E2E
:10025A00003EE300FC0109300A128A15BE210A1287
:10026A008A110230831203136106031D45296D307A
:10027A00FC008030FD000A128A1599210A128A119F
:10028A000330831203136106031D54297430FC00E2
:10029A008030FD000A128A1599210A128A110A125F
:1002AA008A119D210A128A110A128A1577210A12C5
:1002BA008A110A128A1105200A128A11831203135B
:1002CA006408031DEF288312031365083039031DE0
:1002DA00F528831203136208630403195429570883
:1002EA00FA005608F9003C30FB000030FC000A1204
:1002FA008A15E4210A128A11831203135C0879070A
:10030A00C7005D0803185D0A7A07C8006308803AC7
:10031A00C9004808803A4902031D95294708620224
:10032A00031854290A128A154A210A128A115429D1
:10033A00273083120313A2002208F2002830A300F8
:10034A002308F30026300A128A15FB230A128A119F
:10035A001030F0000030F100831203132608A200C7
:10036A00A3012208F2002308F3000A128A15FC24CA
:10037A000A128A117108FA007008F9000A30FB00A3
:10038A000030FC000A128A15E4210A128A1183122B
:10039A00031326080F397907D4007A0803187A0A52
:1003AA00D5001030F0000030F1002708A200A301A8
:1003BA002208F2002308F3000A128A15FC240A1202
:1003CA008A117108FA007008F9000A30FB0000303F
:1003DA00FC000A128A15E4210A128A1183120313F5
:1003EA0027080F397907D6007A0803187A0AD7003E
:1003FA001030F0000030F1002808A200A301220802
:10040A00F2002308F3000A128A15FC240A128A1140
:10041A007108FA007008F9000A30FB000030FC008D
:10042A000A128A15E4210A128A1183120313280870
:10043A000F397907DC007A0803187A0ADD006008A8
:10044A00A200A30155082306031D2D2A54082206DB
:10045A000319C42A5408A2002208E0002630A20088
:10046A002208F2002730A3002308F3002830A40052
:10047A002408F40025300A128A15B2250A128A11B4
:10048A008312031325080F39A200A3012208D20000
:10049A002308D3001030F0000030F1002608A20033
:1004AA00A3012208F2002308F3000A128A15FC2489
:1004BA000A128A117108FA007008F9000A30FB0062
:1004CA000030FC000A128A15E4210A128A118312EA
:1004DA00031326080F397907D0007A0803187A0A15
:1004EA00D1001030F0000030F1002708A200A3016B
:1004FA002208F2002308F3000A128A15FC240A12C1
:10050A008A117108FA007008F9000A30FB000030FD
:10051A00FC000A128A15E4210A128A1183120313B3
:10052A0027080F397907D8007A0803187A0AD900F8
:10053A001030F0000030F1002808A200A3012208C0
:10054A00F2002308F3000A128A15FC240A128A11FF
:10055A007108FA007008F9000A30FB000030FC004C
:10056A000A128A15E4210A128A118312031328082F
:10057A000F397907DE007A0803187A0ADF005B0868
:10058A005706031DCA2A5A085606031908005708AF
:10059A00DB005608DA000130E8070318E90A0030E0
:1005AA00E9076908803AFF0080307F02031DDF2ACD
:1005BA003C306802031CFB2A013083120313E6074E
:1005CA000318E70A0030E7070230F2000030F300B0
:1005DA000230F4000030F50066300A128A156122F2
:1005EA000A128A1183120313E801E9010030F200AA
:1005FA00F3000230F4000030F50068300A128A1560
:10060A00612208008312031364080319122B0A12C9
:10061A008A1105200A128A11072B61030319192B63
:10062A0002306106031D1A2D5508BA005408B90094
:10063A005708BC005608BB005D08BE005C08BD0038
:10064A00F50101300A128A155A230A128A113F301B
:10065A00FC008030FD000A128A1599210A128A11BB
:10066A008D30FC008030FD000A128A1599210A1289
:10067A008A11FC01FC0A00300A128A15BE210A12EC
:10068A008A110A128A15D3220A128A1183120313B3
:10069A006408031D852B0A128A1105200A128A1181
:1006AA0083120313651E6D2B0130D4070318D50A74
:1006BA000030D5075508803AFF0080307F02031DBD
:1006CA00682B18305402031C792B83120313772BDF
:1006DA00E51E792BFF30D4070318D50AFF30D5075A
:1006EA00D51F792BD401D50183120313650830393C
:1006FA0003194B2B3E2B0A128A1105200A128A1162
:10070A00831203136408031D802BFC0100300A12B4
:10071A008A15BE210A128A113F30FC008030FD0082
:10072A000A128A1599210A128A116530FC00803052
:10073A00FD000A128A1599210A128A1183120313DB
:10074A006408031DEA2B0A128A1105200A128A116B
:10075A0083120313651EC52B0130D6070318D70A67
:10076A000030D7075708803AFF0080307F02031D08
:10077A00C02B3C305602031CD12B83120313CF2B00
:10078A00E51ED12BFF30D6070318D70AFF30D7074B
:10079A00D71FD12BD601D70183120313650830392D
:1007AA000319A32BFC01FC0A00300A128A15BE2188
:1007BA000A128A110A128A15D3220A128A11A32B43
:1007CA000A128A1105200A128A1183120313640875
:1007DA00031DE52BFC0100300A128A15BE210A12FC
:1007EA008A113F30FC008030FD000A128A159921D7
:1007FA000A128A115D30FC008030FD000A128A1547
:10080A0099210A128A11831203136408031D4A2CC0
:10081A000A128A1105200A128A1183120313651E0D
:10082A002A2C0130DC070318DD0A0030DD075D08D9
:10083A00803AFF0080307F02031D252C3C305C0289
:10084A00031C362C83120313342CE51E362CFF307E
:10085A00DC070318DD0AFF30DD07DD1F362CDC015B
:10086A00DD0183120313650830390319082CFC01D2
:10087A00FC0A00300A128A15BE210A128A110A12CB
:10088A008A15D3220A128A11082C55083A06031D22
:10089A00502C54083906031D622C57083C06031DC8
:1008AA00582C56083B06031D622C5D083E06031DA4
:1008BA00602C5C083D0603190F2D0A30F000003049
:1008CA00F1005508F3005408F2000A128A15FC24B4
:1008DA000A128A11700883120313B6007108B7004E
:1008EA00B60EB70EF030B70536080F39B704F03038
:1008FA00B6050A30F0000030F1005508F30054083C
:10090A00F2000A128A150F230A128A11700883123A
:10091A0003133607B90071080318710A3707BA00BA
:10092A000A30F0000030F1005708F3005608F200D0
:10093A000A128A15FC240A128A11700883120313F8
:10094A00B6007108B700B60EB70EF030B705360814
:10095A000F39B704F030B6050A30F0000030F10064
:10096A005708F3005608F2000A128A150F230A12D2
:10097A008A117008831203133607BB007108031823
:10098A00710A3707BC000A30F0000030F1005D0838
:10099A00F3005C08F2000A128A15FC240A128A1172
:1009AA00700883120313B6007108B700B60EB70EAB
:1009BA00F030B70536080F39B704F030B6050A30FB
:1009CA00F0000030F1005D08F3005C08F2000A1242
:1009DA008A150F230A128A11700883120313360725
:1009EA00BD0071080318710A3707BE003B08B6003C
:1009FA003608F2003D08B7003708F30039080A1232
:100A0A008A150B220A128A11831203135708DB0074
:100A1A005608DA0083120313640803191A2D0A12FE
:100A2A008A1105200A128A110F2D61030319212D3B
:100A3A0003306106031D08005308C0005208BF00B6
:100A4A005108C2005008C1005908C4005808C30020
:100A5A005F08C6005E08C500F50101300A128A1552
:100A6A005A230A128A113F30FC008030FD000A1214
:100A7A008A1599210A128A119330FC008030FD00F0
:100A8A000A128A1599210A128A11FC01FC0A0030FD
:100A9A000A128A15BE210A128A110A128A15132607
:100AAA000A128A11831203136408031D952D0A1270
:100ABA008A1105200A128A1183120313651E7B2DDF
:100ACA000130DE070318DF0A0030DF075F08803ACB
:100ADA00FF0080307F02031D742D64305E02031C08
:100AEA00892D83120313DE01DF01892DE51E892D6D
:100AFA00FF30DE070318DF0AFF30DF07DF1F892D0B
:100B0A006330D0000030D1008312031365083039F6
:100B1A000319572D4A2D0A128A1105200A128A1121
:100B2A00831203136408031D902DFC0100300A127E
:100B3A008A15BE210A128A113F30FC008030FD005E
:100B4A000A128A1599210A128A118730FC0080300C
:100B5A00FD000A128A1599210A128A1183120313B7
:100B6A006408031DFF2D0A128A1105200A128A1130
:100B7A0083120313651ED62D0130D8070318D90A2C
:100B8A000030D9075908803AFF0080307F02031DE0
:100B9A00D02D0D305802031CE62D013083120313A9
:100BAA00E32DE51EE62DFF30D8070318D90AFF30DA
:100BBA00D90758085904031DE62D0C30D800003017
:100BCA00D90083120313650830390319B32DFC01C8
:100BDA00FC0A00300A128A15BE210A128A110A1268
:100BEA008A1513260A128A11B32D0A128A110520B0
:100BFA000A128A11831203136408031DFA2DFC01D9
:100C0A0000300A128A15BE210A128A113F30FC00EE
:100C1A008030FD000A128A1599210A128A11813040
:100C2A00FC008030FD000A128A1599210A128A11E5
:100C3A00831203136408031D7C2E0A128A110520ED
:100C4A000A128A1183120313651E4A2E0130D00735
:100C5A000318D10A0030D1075808FF3E333E8400FA
:100C6A000A128A150A200A128A11B6005108803A15
:100C7A00803C031D422E500836020318632E0130B1
:100C8A0083120313D0000030622EE51E632EFF305C
:100C9A00D0070318D10AFF30D107D11F632E580895
:100CAA00FF3E333E84000A128A150A200A128A116C
:100CBA00B600B7013608D0003708D10083120313F3
:100CCA006508303903191D2EFC01FC0A00300A128E
:100CDA008A15BE210A128A110A128A1513260A12C5
:100CEA008A111D2E0A128A1105200A128A118312EC
:100CFA0003136408031D772EFC0100300A128A15BB
:100D0A00BE210A128A113F30FC008030FD000A120F
:100D1A008A1599210A128A117B30FC008030FD0065
:100D2A000A128A1599210A128A1183120313640876
:100D3A00031DDF2E0A128A1105200A128A11831254
:100D4A000313651EBD2E0130D2070318D30A0030E3
:100D5A00D3075308803AFF0080307F02031DB72E65
:100D6A0008305202031CCB2E013083120313C82E03
:100D7A00E51ECB2EFF30D2070318D30AFF30D30764
:100D8A00D31FCB2E0730D2000030D30083120313B7
:100D9A006508303903199A2EFC01FC0A00300A1240
:100DAA008A15BE210A128A110A128A1513260A12F4
:100DBA008A119A2E53084006031DE52E52083F0653
:100DCA00031DFF2E51084206031DED2E5008410651
:100DDA00031DFF2E59084406031DF52E5808430625
:100DEA00031DFF2E5F084606031DFD2E5E084506FD
:100DFA000319DD2F0A30F0000030F1005308F30028
:100E0A005208F2000A128A15FC240A128A11700882
:100E1A0083120313B6007108B700B60EB70EF0308E
:100E2A00B70536080F39B704F030B6050A30F000B6
:100E3A000030F1005308F3005208F2000A128A1532
:100E4A000F230A128A117008831203133607BF0090
:100E5A0071080318710A3707C0000A30F000003021
:100E6A00F1005108F3005008F2000A128A15FC2416
:100E7A000A128A11700883120313B6007108B700A8
:100E8A00B60EB70EF030B70536080F39B704F03092
:100E9A00B6050A30F0000030F1005108F30050089E
:100EAA00F2000A128A150F230A128A117008831295
:100EBA0003133607C10071080318710A3707C20005
:100ECA000A30F0000030F1005908F3005808F20027
:100EDA000A128A15FC240A128A1170088312031353
:100EEA00B6007108B700B60EB70EF030B70536086F
:100EFA000F39B704F030B6050A30F0000030F100BF
:100F0A005908F3005808F2000A128A150F230A1228
:100F1A008A117008831203133607C3007108031875
:100F2A00710A3707C4000A30F0000030F1005F0888
:100F3A00F3005E08F2000A128A15FC240A128A11CA
:100F4A00700883120313B6007108B700B60EB70E05
:100F5A00F030B70536080F39B704F030B6050A3055
:100F6A00F0000030F1005F08F3005E08F2000A1298
:100F7A008A150F230A128A1170088312031336077F
:100F8A00C50071080318710A3707C6004108B60080
:100F9A003608F2004308B7003708F3004508B800DE
:100FAA003808F4003F080A128A1533220A128A11F5
:100FBA00831203136408031908000A128A11052010
:100FCA000A128A11DD2FE201E301E401E501E601DB
:100FDA00E701E801E90183136230FD000930FE00F0
:100FEA005F30FF004A3084000A128A153D218301CE
:100FFA000A128A113428FF1B0A2883137F188317C1
:10100A000008840A0319FF0A080008308A00040845
:10101A00840A82070034003402340434003403346E
:10102A0000340134103403340234003400340334FD
:10103A0002340134003406340034043400340634F3
:10104A0005340034203406340534043400344D3475
:10105A006F346E34543475346534573465346434BB
:10106A0054346834753446347234693453346134D0
:10107A007434533475346E3400341F341D341F34C1
:10108A001E341F341E341F341F341E341F341E34C2
:10109A001F34533465347434203400345334743474
:1010AA0061347234743469346E346734203463348E
:1010BA006F3475346E3474346534723400342034C9
:1010CA002034203420342034203420340034533463
:1010DA00653463346F346E346434733400344D349D
:1010EA0069346E347534743465347334003454346A
:1010FA0069346D34653420343F3400344434613407
:10110A007434653420343F340034443461347934DF
:10111A002034203400344434613474346534203447
:10112A0000344D346F346E347434683400344834C7
:10113A006F3475347234733400345934653461341D
:10114A007234003461347434203400343A34003454
:1011B6000A128A1529210800F10071080A128A15F7
:1011C6000E210800831603139114911C0800E828C9
:1011D600831603131114111C0800EE28831603133B
:1011E6001115111D0800F428831603139116111604
:1011F600111E0800FB288316031391121116111EE7
:10120600080002298316031311081F39031D052937
:10121600141D08000529F0007008831203139300BB
:1012260083160313141813290A128A1505210800B8
:101236008316031387150716941728308312031392
:1012460094002830831603139300080083160313B3
:101256009115141C2C29831203131308F00070082F
:10126600F1000A128A150521710808007E088A0015
:101276007F08820039210A128A158000840A040830
:101286007D0603190034FF0A0319FE0A3D2983125D
:101296000313E201E301E101E10AFC0109300A124C
:1012A6008A15BE210A128A155530FC008030FD00D1
:1012B6000A128A15992108002D342D342D342D3427
:1012C6002D3400340834003401340034063400343C
:1012D6000534003405340034FF34FF34043400345C
:1012E60010340034EE340134FC0100300A128A1541
:1012F600BE210A128A150A128A15D3220A128A15E3
:10130600FC01FC0A00300A128A15BE210A128A154F
:101316000A128A1513260A128A1583120313610309
:10132600031D08000A128A154C2408007D08831242
:101336000313FF007C0884000A128A1500200A1293
:101346008A15003A03190800F501F50A7D0883128B
:101356000313FF007C0884000A128A1500200A1273
:101366008A150A128A155A230A128A150130FC07B1
:101376000318FD0A992983120313A00014302002D2
:1013860003180800CF292017DD291430CB29543043
:10139600FD007D08A007DD297C08003A0319DD2938
:1013A600013A0319C629033A0319C829013A031950
:1013B600CA29DD29A017F50120080A128A155A2321
:1013C600080083120313A001A101791CF2297B08EE
:1013D60083120313A0070318A10A7C08A107013092
:1013E6000310FB0DFC0DFF3E031DF3290130031016
:1013F600FA0CF90CFF3E031DFA2979087A04031D3D
:10140600E829831203132108FA002008F9000800CE
:10141600F4000A128A15EB200A128A15D0300A1235
:101426008A15DF200A128A1500300A128A15DF2073
:101436000A128A1573080A128A15DF200A128A15FB
:1014460072080A128A15DF200A128A1574080A120F
:101456008A15DF200A128A150A128A15F120080059
:10146600F5000A128A15EB200A128A15D0300A12E4
:101476008A15DF200A128A1503300A128A15DF2020
:101486000A128A1575080A128A15DF200A128A15A9
:1014960072080A128A15DF200A128A1573080A12C0
:1014A6008A15DF200A128A1574080A128A15DF20A7
:1014B6000A128A150A128A15F1200800F8000A1283
:1014C6008A15EB200A128A15D0300A128A15DF20F7
:1014D6000A128A157208083E0A128A15DF200A12B5
:1014E6008A157508F700F403740AF6000319F50364
:1014F6007708803AFF0080307F02031D842A01307E
:101506007602031C942A78088400831300080A12C2
:101516008A15DF200A128A150130F6007608F807C8
:10152600742A0A128A15F120080083120313A000F8
:101536002730FD00F530FC00FC0B9F2AFD0B9F2A8F
:101546000F30FC007C088316031388058612881169
:1015560008110F30FC007C088312031388058612DD
:101566000811881183120313861688160000831249
:101576000313861200000A128A1555250A128A15C7
:10158600F50128300A128A155A230A128A15F5011E
:101596008312031320080C380A128A155A230800EE
:1015A600831203135508A3005408A2000230B300A7
:1015B6003308A4000A128A15C5260A128A15F501EF
:1015C600F50A3A300A128A155A230A128A15831224
:1015D60003135708A3005608A2000230B3003308CD
:1015E600A4000A128A15C5260A128A15F501F50AFB
:1015F6003A300A128A155A230A128A1583120313DD
:101606005D08A3005C08A2000230B3003308A40002
:101616000A128A15C5260800F601F31F192BF209CE
:10162600F309F20A0319F30AF601F60AF11F202B51
:10163600F009F109F00A0319F10A70087104031997
:101646004D2BF501F50AF11B342B01300310F00D7B
:10165600F10DFF3E031D292B0130F4007408F50738
:10166600262B71087302031D3A2B70087202031CA5
:10167600422B7008F2027108031CF303F3020130D7
:101686000310F10CF00CFF3E031D432B0130F50255
:10169600031D342B76080319552BF209F309F20AB8
:1016A6000319F30A7308F1007208F0000800FA0043
:1016B6007A08F60004300310F60CFF3E031D5E2B7D
:1016C6007608F7007708F8007A080F39F6007608EA
:1016D600F9007508031D732B831203138811762BEB
:1016E6008312031388158312031386167808F600EF
:1016F60004300310F60DFF3E031D7C2B08080F393E
:101706007604F7007708FB007B0888000000831248
:101716000313861200008312031386167908F60057
:1017260004300310F60DFF3E031D942B08080F39F5
:101736007604F7007708FB007B0888000000831218
:101746000313861200000A128A1555250800F301B4
:101756000A128A15EB200A128A15D0300A128A1547
:10176600DF200A128A1500300A128A15DF200A12B3
:101776008A150A128A15E5200A128A15D1300A122C
:101786008A15DF200A128A150A128A15DB200A1228
:101796008A15F2007208F3000A128A15F7200A1257
:1017A6008A150A128A15F1200A128A15F31F0800F3
:1017B60073087F39F2007208F3000A128A15EB20CB
:1017C6000A128A15D0300A128A15DF200A128A15E3
:1017D60000300A128A15DF200A128A1573080A12C7
:1017E6008A15DF200A128A150A128A15F1200800C6
:1017F600F5000A128A15EB200A128A15D0300A1251
:101806008A15DF200A128A1500300A128A15DF208F
:101816000A128A150A128A15E5200A128A15D1308B
:101826000A128A15DF200A128A150A128A15DB2087
:101836000A128A15F4007308840074088313800062
:101846000A128A15FE200A128A150A128A15DB2048
:101856000A128A15F4007208840074088313800043
:101866000A128A15FE200A128A150A128A15DB2028
:101876000A128A15F4007508840074088313800020
:101886000A128A15F7200A128A150A128A15F120F9
:101896000800FC010A300A128A15BE210A128A15AE
:1018A600831203136708803AFF0083307F02031D0B
:1018B6005E2CE9306602031C882CE830F000033009
:1018C600F100831203136708F3006608F2000A1298
:1018D6008A15FC240A128A15710883120313B400B0
:1018E6007008B3003408A3003308A200A401A40AB8
:1018F6000A128A15C5260A128A15F501F50A2C3030
:101906000A128A155A230A128A15E830F0000330A3
:10191600F100831203136708F3006608F2000A1247
:101926008A150F230A128A15710883120313A3005E
:101936007008A200A401A40A0A128A15C526080086
:10194600F8000A128A15EB200A128A15D0300A12FC
:101956008A15DF200A128A157208083E0A128A15AD
:10196600DF200A128A150A128A15E5200A128A153C
:10197600D1300A128A15DF200A128A157508F70077
:10198600F403740AF6000319F5037708803AFF009A
:1019960080307F02031DD12C02307602031CE32C1B
:1019A6000A128A15DB200A128A15F60078088400C6
:1019B6007608831380000130F6007608F807C12CFC
:1019C6000A128A15FE200A128A150A128A15DB20C7
:1019D6000A128A15F60078088400760883138000B8
:1019E6000A128A15F7200A128A150A128A15F12098
:1019F6000800F601F11F062DF009F109F00A031996
:101A0600F10AF601F60AF31F112DF209F309F20A9B
:101A16000319F30A0130F4007408F606F701F80119
:101A2600700871040319482DF501F50AF11B272DDD
:101A360001300310F00DF10DFF3E031D1C2D01308A
:101A4600F4007408F507192D01300310F70DF80D91
:101A5600FF3E031D282D71087302031D342D7008E7
:101A66007202031C3D2D7008F2027108031CF30379
:101A7600F302771401300310F10CF00CFF3E031D46
:101A86003E2D0130F502031D272D76080319502D32
:101A9600F709F809F70A0319F80A7808F100770830
:101AA600F0000800F401F030F0007008831603130C
:101AB60088048312031308158811831203138616EC
:101AC600831203130808F00004300310F00CFF3EE5
:101AD600031D682D7008F1007108F4007408F00009
:101AE60003300310F00DFF3E031D742D0310700D1F
:101AF600F1007108F40083120313861200008312AA
:101B060003138616831203130808F000043003102B
:101B1600F00CFF3E031D8A2D7008F1007108F300DA
:101B26000F30F0007008F30574087304F0007008B5
:101B3600F40074088039F0007008F2008312031371
:101B4600861200007208031D602D8312031308110C
:101B56000F30F00070088316031388050800F6009E
:101B66000A128A15EB200A128A15D0300A128A1533
:101B7600DF200A128A1503300A128A15DF200A129C
:101B86008A150A128A15E5200A128A15D1300A1218
:101B96008A15DF200A128A150A128A15DB200A1214
:101BA6008A15F500760884007508831380000A12EA
:101BB6008A15FE200A128A150A128A15DB200A12D5
:101BC6008A15F500720884007508831380000A12CE
:101BD6008A15FE200A128A150A128A15DB200A12B5
:101BE6008A15F500730884007508831380000A12AD
:101BF6008A15FE200A128A150A128A15DB200A1295
:101C06008A15F500740884007508831380000A128B
:101C16008A15F7200A128A150A128A15F120080079
:101C2600831203135208FF3EF90053080318013EBE
:101C3600FF3EFA000330FB000030FC000A128A1552
:101C4600E4210A128A157A0883120313B50079086B
:101C5600B4005108A3005008A2000230B3003308B4
:101C6600A4000A128A15C5260A128A15F501F50A74
:101C76002F300A128A155A230A128A158312031361
:101C86005908A3005808A2000230B3003308A40084
:101C96000A128A15C5260A128A15F501F50A2F3089
:101CA6000A128A155A230A128A15F501F50A3230E4
:101CB6000A128A155A230A128A15F501F50A3030D6
:101CC6000A128A155A230A128A15831203135F0809
:101CD600A3005E08A2000230B3003308A4000A1273
:101CE6008A15C5260A128A15F501F50A20300A1248
:101CF6008A155A230A128A15F501F50A20300A12A6
:101D06008A155A230A128A15F501F50A8312031356
:101D160034081D3E84000A128A150A200A128A1502
:101D26000A128A155A230A128A15013083120313DE
:101D3600B4070318B50A0030B507F501F50A3408EB
:101D46001D3E84000A128A150A200A128A150A12F2
:101D56008A155A230A128A15013083120313B4070F
:101D66000318B50A0030B507F501F50A34081D3E1B
:101D760084000A128A150A200A128A150A128A157E
:101D86005A2308002A308400831203134A08831357
:101D96008000840A4B088000840A4C088000840A6C
:101DA6004D088000840A4E088000840A4F0880008F
:101DB600A801A9010530B0000030B1002403FF3AA4
:101DC600053EA5002508A4001030F0002730F100DC
:101DD6002308F3002208F2000A128A15FC240A12CC
:101DE6008A15700883120313A5002508B20032086D
:101DF6000319172F3208A500A6012508F9002608A1
:101E0600FA001030FB002730FC000A128A15E42184
:101E16000A128A15790883120313A2027A08031C90
:101E2600A303A302B001B1013208303EA500250884
:101E3600AA00E830F0000330F1002308F30022087E
:101E4600F2000A128A15FC240A128A1570088312F7
:101E56000313A5002508B20032080319532F3208D0
:101E6600A500A6012508F9002608FA00E830FB00BF
:101E76000330FC000A128A15E4210A128A15790831
:101E860083120313A2027A08031CA303A3020530DC
:101E960030063104031D532F0130B0000030B1006D
:101EA6003208303EA5002508AB006430F000003053
:101EB600F1002308F3002208F2000A128A15FC2416
:101EC6000A128A15700883120313A5002508B200AA
:101ED600320803198F2F3208A500A6012508F9003C
:101EE6002608FA006430FB000030FC000A128A154E
:101EF600E4210A128A15790883120313A2027A08CA
:101F0600031CA303A302053030063104031D8F2FE3
:101F16000230B0000030B1003208303EA50025087E
:101F2600AC000A30F0000030F1002308F30022086C
:101F3600F2000A128A15FC240A128A157008831206
:101F46000313A5002508B20032080319CB2F320867
:101F5600A500A6012508F9002608FA000A30FB00AC
:101F66000030FC000A128A15E4210A128A15790843
:101F760083120313A2027A08031CA303A3020530EB
:101F860030063104031DCB2F0330B0000030B10002
:101F96003208303EA5002508AD0005303006310474
:101FA600031DD92F0430B0000030B1002208303EA6
:101FB600A5002508AE002408A500A601A51BA603BA
:101FC6003108803AA7002608803A2702031DED2F24
:101FD600250830020318F52F831203133008A500D5
:101FE6002508A4008312031324082A3EFC000030AF
:0A1FF600FD000A128A159921080067
:02400E00B13FC0
:00000001FF
